:020000040800F2
:1000000090070020890100082D1800082518000815
:1000100029180008910200082919000800000000B2
:10002000000000000000000000000000351800087B
:10003000AD0200080000000031180008391800085F
:10004000A3010008A3010008A3010008A301000800
:10005000A3010008A3010008A3010008A3010008F0
:10006000A3010008A3010008A3010008A3010008E0
:10007000A3010008A301000895020008A1020008DE
:10008000A3010008A3010008A3010008A3010008C0
:10009000A3010008A3010008A3010008A3010008B0
:1000A000A3010008A3010008A3010008A3010008A0
:1000B00041180008A3010008A3010008A3010008DB
:1000C000A3010008A3010008A3010008A301000880
:1000D000A30100081D190008A3010008A3010008DE
:1000E000A3010008A3010008A301000800F002F822
:1000F00000F03AF80AA090E8000C82448344AAF188
:100100000107DA4501D100F02FF8AFF2090EBAE885
:100110000F0013F0010F18BFFB1A43F0010318473B
:10012000A4190000C4190000103A24BF78C878C18F
:10013000FAD8520724BF30C830C144BF04680C60ED
:10014000704700000023002400250026103A28BF35
:1001500078C1FBD8520728BF30C148BF0B60704739
:100160001FB51FBD10B510BD00F058F81146FFF7C0
:10017000F7FF01F0DBFB00F076F803B4FFF7F2FFC6
:1001800003BC00F07DF8000009488047094800479B
:10019000FEE7FEE7FEE7FEE7FEE7FEE7FEE7FEE737
:1001A000FEE7FEE704480549054A064B7047000094
:1001B0003D180008ED000008900100209007002085
:1001C00090030020900300204FF0000200B513467A
:1001D00094469646203922BFA0E80C50A0E80C5067
:1001E000B1F12001BFF4F7AF090728BFA0E80C5018
:1001F00048BF0CC05DF804EB890028BF40F8042B11
:1002000008BF704748BF20F8022B11F0804F18BF7D
:1002100000F8012B7047704770477047754600F033
:100220002BF8AE4605006946534620F00700854688
:1002300018B020B5FFF7B6FFBDE820404FF000062C
:100240004FF000074FF000084FF0000BAC46ACE851
:10025000C009ACE8C009ACE8C009ACE8C00921F0AD
:1002600007018D46704710B50446AFF30080204665
:10027000BDE81040FFF781BF004870471000002024
:1002800001491820ABBEFEE72600020070470000BF
:10029000FEE7000040F2B400C2F2000000F084B8B3
:1002A00040F27000C2F2000000F07EB8704700001B
:1002B000EFF3108072B600BFFEE70000014690F831
:1002C0002100022813D10868D1E90FC3026822F087
:1002D0000E020260026822F001020260012000FAB0
:1002E00003F2CCF8042081F82100002002E0042071
:1002F00088630120002281F82020704780B590F8A3
:100300002110022923D10268116821F00E01116029
:100310002F211368C4F202018A4240F20401C4F2A0
:10032000020123F00103136015DD3023C4F2020340
:100330009A421CD04423C4F202039A421AD0582392
:10034000C4F202039A421AD14FF480331FE0042111
:100350008163012080BD0823C4F202039A420CD0BD
:100360001C23C4F202039A4209D110230FE04FF478
:1003700080730CE04FF4805309E0012307E001F1A2
:10038000680C4FF08073624508BF4FF480130B6018
:10039000012180F82110426B002180F820100AB161
:1003A00090470021084680BD10B5D0E90FCE016806
:1003B000DCF800300A6823FA0EF35C0724D512F04B
:1003C000040421D00A68920603D40A6822F00402C9
:1003D0000A602F22C4F20202914240F20402C4F2E7
:1003E000020253DD3023C4F20203994266D0442353
:1003F000C4F20203994264D05823C4F20203994222
:1004000064D14FF4802369E09C0727D512F00204E1
:1004100024D00A68920606D40A6822F00A020A600A
:10042000012280F821202F22C4F20202914240F2E0
:100430000402C4F2020235DD3023C4F20203994201
:1004400052D04423C4F20203994250D05823C4F23C
:100450000203994250D14FF4003355E01B075AD59F
:1004600012F0080208BF10BD0A6822F00E020A60EE
:10047000012101FA0EF2CCF80420816380F82110EA
:10048000016B002280F8202059BB44E00823C4F20D
:100490000203994218D01C23C4F20203994215D1D9
:1004A00040231BE00823C4F20203994222D01C23FC
:1004B000C4F2020399421FD1202325E04FF4806348
:1004C0000CE04FF4804309E0042307E002F16804E4
:1004D0004FF08063A14208BF4FF480031360C16AEC
:1004E000C9B1BDE8104008474FF400730CE04FF469
:1004F000005309E0022307E002F168044FF00073A3
:10050000A14208BF4FF400131360816A0022002942
:1005100080F82020E5D110BD014600284FF00100F1
:1005200008BF70472DE9F043D1F800C04FF6F873CB
:10053000CBF6FD734CF6CD426344CCF6CC42A3FB24
:1005400002236FF0030707EA93030027C4F20207B0
:1005500001F10C09C1E90F730223D1E9012E99E8D9
:100560007002D1F81C8081F82130DCF8003043F6AD
:10057000F077BB431A4342EA0E0222432A43324336
:1005800042EA090242EA0802CCF8002000228A630B
:1005900081F8210081F820200020BDE8F043704759
:1005A0002DE9F04F82B00E68002E00F0F68041F287
:1005B0000042C4F20102042340F2004E904208BF00
:1005C00003234FF6FF7CC4F2010E009300240123A5
:1005D000C1F2100C4FF0000A4FF0000943E0012770
:1005E00004F00C030F229A402BEA020207FA03F3ED
:1005F0004FEA9A051A4346F825204E6840F20C450A
:10060000F202DEF8082054BF22EA080242EA080299
:10061000C4F20105CEF808202A68B30254BF22EACA
:10062000080242EA08022A60B303DEF8042054BF3D
:1006300022EA080242EA0802F303CEF80420DEF8B8
:1006400000204FF0010354BF22EA080242EA0802E8
:10065000CEF800200E680AF1010A36FA0AF204F117
:10066000040400F09A8003FA0AFB16EA0B08F1D0A2
:100670004E68664510DC122E50D8DFE806F0330ACB
:1006800041454F4F4F4F4F4F4F4F4F4F4F4F4F4899
:100690004C00D1F80C9041E04FF6FF72C1F22102FC
:1006A00096420FDC0022C1F2110296421AD00022BB
:1006B000C1F21202964215D00022C1F221029642E6
:1006C00010D02BE00022C1F2220296420AD0002272
:1006D000C1F23102964205D00022C1F232029642A6
:1006E0001CD100BF8A6842B1012A14BFC0F814B0FF
:1006F000C0F810B04FF0080910E04FF004090DE009
:10070000CA6802F1080909E04FF0000906E0CA686A
:1007100002F1040902E0CA6802F10C092246064609
:10072000B8F5807F24BF203A043637680F259540FE
:1007300027EA050509FA02F22A433260CA79D2068D
:100740007FF588AF41F21803C4F202031A68AEF5D0
:100750007E7642F001021A601A6802F001020192EC
:10076000019A2AF0030256F802B040F60002C4F2E1
:10077000010290420FD040F60042C4F201029042C2
:100780003FF42DAF41F20002C4F20102009F9042FB
:1007900008BF022724E7002722E702B0BDE8F08F58
:1007A00040F28810C2F200000068704740F2040076
:1007B00040F28811C2F20000C2F2000100780A681B
:1007C000104408607047000080B542F20000C4F297
:1007D0000200016841F010010160032000F08EF872
:1007E0000F2000F005F800F02BF8002080BD00007D
:1007F000B0B540F20402C2F2000240F200011278E9
:10080000C2F200014FF47A730968B3FBF2F20446B6
:10081000B1FBF2F1084600F01FFB0F2C4FF0010571
:100820000CD858B94FF0FF3021460022002500F0C7
:1008300039F840F20800C2F2000004602846B0BD5A
:1008400082B041F21800C4F202000168022241F0B5
:1008500001010160016801F0010101910199416804
:1008600041F080514160406800F080500090009855
:100870000420C4F20100016862F31A61016002B051
:1008800070470000002848BF704700F01F01012298
:1008900002FA01F14EF200124009CEF2000242F8D3
:1008A0002010704710B54EF60C5CCEF2000CDCF850
:1008B0000030C3F3022E8EF00704042C28BF04245A
:1008C000BEF103034FF0FF3E0EFA04F438BF0023DD
:1008D000A14399400EFA03F39A43114300F1604299
:1008E00000F00F03090102F56442043B6344002851
:1008F00048BF03F10C02117010BD00004EF60C5100
:10090000CEF200010A684FF6FF031A4060F30A2294
:1009100042F0806040F0FD70086070472DE9F043C0
:1009200081B0002800F0858042F20008C4F202087D
:100930000446D8F800000D4600F0070088420CD2AB
:10094000D8F8000020F007002843C8F80000D8F8C5
:10095000000000F00700A8426BD1206841F20409B2
:100960008107C4F2020917D5410705D5D9F800104F
:1009700041F4E061C9F80010010705D5D9F800106D
:1009800041F46051C9F80010D9F80010A26821F0B4
:10099000F0011143C9F80010C00741D1D8F8000098
:1009A00000F00700A8420CD9D8F8000020F007009A
:1009B0002843C8F80000D8F8000000F00700A8425B
:1009C00037D12068410707D5D9F80010E26821F433
:1009D000E0611143C9F80010000708D5D9F80000FC
:1009E000216920F4605040EAC100C9F80000D9F83C
:1009F000002002F00C00082841F20020C0F27A002A
:100A00004ED141F6B423C2F38341C0F60003595CD2
:100A1000D20339D440F60010C0F23D0048433FE015
:100A20006068022809D0012829D159F8041C8903DB
:100A300007D4012001B0BDE8F08359F8041C8901F6
:100A4000F7D5D9F8001021F003010843C9F80000D8
:100A5000FFF7A6FE064641F2883700BFD9F800002E
:100A6000616800F00C00B0EB810F97D0FFF798FEA3
:100A7000801BB842F2D9032001B0BDE8F08359F8D9
:100A8000041C8907D5D5DCE7D9F8002041F6B2234C
:100A9000C2F34042C0F600039A5C4843B0FBF2F058
:100AA000D9F8001041F69A22C1F30311C0F60002F2
:100AB000515C40F2000220FA01F140F20800C2F25B
:100AC00000000068C2F200021160FFF791FE0020F2
:100AD00001B0BDE8F083000040F2000041F20401E3
:100AE000C2F20000C4F202010068096841F6AA22BD
:100AF000C1F30221C0F60002515CC84070470000FB
:100B000040F2000041F20401C2F20000C4F202010E
:100B10000068096841F6AA22C1F3C221C0F60002AA
:100B2000515CC840704700002DE9F04182B00028B8
:100B300000F0D7800446007841F20006C007C4F2F6
:100B4000020644D0706800F00C00042817D07068CA
:100B500000F00C00082802D17068C0030FD465684B
:100B60002DB1B5F5A02F10D0B5F5803F11D030686C
:100B700020F480303060306820F480200CE0306851
:100B8000800324D5606810BBABE0306840F480205F
:100B90003060306840F480303060FFF701FE002D97
:100BA000054611D03068800311D4FFF7F9FD401BD2
:100BB0006428F7D916E100BFFFF7F2FD401B642857
:100BC0004FF0030000F28A8030688003F4D420786C
:100BD000800718D5706810F00C0F07D0706800F00F
:100BE0000C00082827D17068C00324D4306880071F
:100BF00002D52069012874D13068616920F0F800BD
:100C000040EAC1003060207800074FD5A06940B3AA
:100C10000020C4F242200121C0F88014FFF7C0FD7B
:100C2000054600BF706A80072DD4FFF7B9FD401B51
:100C30000228F7D9D6E02069002840F20000C4F26B
:100C4000422000F0A68001210160FFF7A9FD0546C2
:100C500030688007D0D4FFF7A3FD401B0228F7D9E6
:100C6000C0E00020C4F242200021C0F88014FFF749
:100C700097FD0546706A800718D5FFF791FD401B68
:100C80000228F7D9AEE040F20000C2F2000000688E
:100C900044F6D351C1F26201A0FB0101480A019060
:100CA00000BF0198411E00280191F9D1207840072A
:100CB0001BD4E5698DB1706800F00C00082846D19E
:100CC000012D0ED07068216A00F480328A4208D16A
:100CD000616A00F47010884203D1002002B0BDE8C0
:100CE000F081012002B0BDE8F081F06910F0805879
:100CF00008D1F06940F08050F061F06900F0805058
:100D00000090009847F20007C4F200073868C00559
:100D10000FD4386840F480703860FFF741FD054615
:100D20003868C00505D4FFF73BFD401B6428F7D9A0
:100D300058E0E5681DB1052D3CD0012D3ED0306A4C
:100D400020F001003062306A20F0040039E0002712
:100D5000C4F2422700203866FFF722FD022D054627
:100D60000CD100BF3068800154D5FFF719FD401B3E
:100D700002284FF00300F5D9B0E700BF30688001CA
:100D8000ABD5FFF70DFD401B02284FF00300F5D94E
:100D9000A4E700210160FFF703FD054630688007E6
:100DA0007FF531AFFFF7FCFC401B02284FF003003A
:100DB000F4D993E7306A40F004003062306A40F0C2
:100DC00001003062FFF7ECFC002D054641F2883748
:100DD00014D000BF306A800713D4FFF7E1FC401B3A
:100DE000B842F7D9032002B0BDE8F081FFF7D8FC84
:100DF000401BB8424FF003003FF670AF306A8007E7
:100E0000F4D4B8F1000F7FF454AFF06920F08050B3
:100E1000F0614EE7206AB0F5803F05D17168A268A5
:100E200021F40031114371607168626A21F4741118
:100E300011430843706001203866FFF7B1FC044697
:100E4000306880013FF549AFFFF7AAFC001B02287C
:100E50004FF00300F4D941E7411E0020B0EB116FC1
:100E60001CBF012070474EF21002CEF2000251600A
:100E70004EF62351CEF20001F0230B700721906053
:100E800011607047704700007047000010B590F87F
:100E90003C20012A4FF0020231D0012380F83C307F
:100EA00080F83D200268D2F804E0D2F808C00C684F
:100EB0002EF07003234340F2FF74C4F20004A242F8
:100EC000536005DCB2F1804F0ED040F2004307E0E2
:100ED00042F60043C4F201039A4205D040F60003F3
:100EE000C4F200039A4204D149682CF080031943EC
:100EF00091600121002280F83D1080F83C201046CE
:100F000010BD0000002804BF0120704710B5044642
:100F100090F83D0028B9002084F83C00204600F0FD
:100F200065F8022084F83D00206840F2FF730268F3
:100F3000C4F2000342F6004C9842C4F2010C05DCF6
:100F4000B0F1804F0AD040F2004103E0604505D087
:100F500040F60001C4F20001884203D1A16822F0EA
:100F600070020A43984205DCB0F1804F0AD040F28B
:100F7000004103E0604505D040F60001C4F20001E5
:100F8000884203D1216922F440720A43A36922F006
:100F90008001D4F804E0E268194360450160C26250
:100FA000C0F828E002D16169CCF83010012141611C
:100FB0000269D20703D0026922F001020261002017
:100FC00084F8461084F83E1084F83F1084F84010EE
:100FD00084F8411084F8421084F8431084F84410D7
:100FE00084F8451084F83D1010BD000080B582B033
:100FF0000068B0F1804F1CBF02B080BD41F21C0000
:10100000C4F202000168002241F0010101600068A1
:10101000002100F00100019001981C20FFF742FC24
:101020001C2002B0BDE88040FFF72CBC80B590F8D2
:101030003C20012A4FF0020200F0C280012380F818
:101040003C3080F83D20D0F800C04FF67772DCF8D5
:10105000083023EA0202CCF808200B684F2B28DC6A
:101060001F2B43DD202B44D0302B42D0402B40F0AF
:10107000A980D1F804E0C968DCF82030DCF8202031
:1010800022F00102CCF82020DCF8182022F0F00237
:1010900042EA011123F00A0242EA0E02CCF81810CB
:1010A000CCF82020DCF8081041F0470121F0300195
:1010B0007DE06F2B25DDB3F5005F46D0B3F5805F93
:1010C00077D0702B7ED1D1E901E3C968DCF8082024
:1010D00043EA0E0322F47F4243EA01211143CCF894
:1010E0000810DCF8081041F0770160E00BB1102B1C
:1010F00068D1DCF8081021F07001194341F00701B4
:1011000055E0502B34D0602B5CD1D1F804E0C96895
:10111000DCF82030DCF8202022F01002CCF820206F
:10112000DCF8182022F4704242EA013123F0A002D8
:1011300042EA0E12CCF81810CCF82020DCF8081087
:1011400041F0670121F0100131E0D1E901E3C96804
:10115000DCF8082043EA0E0322F47F4243EA01212F
:101160001143CCF80810DCF8081041F480411EE06F
:10117000D1F804E0C968DCF82030DCF8202022F047
:101180000102CCF82020DCF8182022F0F00242EA1C
:10119000011123F00A0242EA0E02CCF81810CCF832
:1011A0002020DCF8081041F0570121F02001CCF894
:1011B00008100022012180F83D10002180F83C1029
:1011C000104680BD0122F5E77047000070B5044667
:1011D0000068C5680669B10716D515F0020113D07D
:1011E0006FF002010161012121778069800703D03E
:1011F0002046FFF7E9FF05E0204600F08DF8204685
:1012000000F08CF800202077700718D515F0040046
:1012100015D020686FF004010161022121778069F7
:1012200010F4407F03D02046FFF7CEFF05E02046B4
:1012300000F072F8204600F071F8002020773007A7
:1012400017D515F0080014D020686FF0080101616F
:1012500004212177C069800703D02046FFF7B4FF3F
:1012600005E0204600F058F8204600F057F800202E
:101270002077F00618D515F0100015D020686FF013
:101280001001016108212177C06910F4407F03D06B
:101290002046FFF799FF05E0204600F03DF8204684
:1012A00000F03CF800202077F00718BF15F001008F
:1012B00002D1300609D412E020686FF0010101610B
:1012C000204600F02DF8300609D515F0800006D034
:1012D00020686FF0800101612046FFF7D3FD7006A2
:1012E00009D515F0400006D020686FF0400101617B
:1012F000204600F017F8B00658BF70BD15F020006A
:1013000008D021686FF0200220460A61BDE87040D5
:10131000FFF7BABD70BD00007047000070470000C5
:1013200070470000704700007047000070470000E1
:10133000B0B582B0044600680168C368426901F034
:101340002F05202D03F0200506D12DB1204602B037
:10135000BDE8B04000F080BA5FEA017C1EBF02F039
:10136000010E03F4907212EB0E0253D1226B012A8C
:1013700005D111F0100218BF13F0100236D10A0681
:1013800022D513F080021FD094F8411021293FD1BB
:10139000A168B1F5805F03D12169002900F0458182
:1013A000216A4A1C226209784160E18C01390A04F1
:1013B000E1842DD1C16821F08001C160C16841F094
:1013C0004001C16002B0B0BD490621D513F0400113
:1013D0001ED0C16821F04001C1602021204684F860
:1013E000411002B0BDE8B04000F01ABA00210191EE
:1013F000016801914168019101994069400611D449
:10140000A08DE18DE28D002A18BF884240F0DF8078
:1014100002B0B0BDC80718BF13F4807049D14807A7
:101420004DD453E0E06B016849688AB2002AEFD0DE
:10143000A38D9A42ECD2E1858069202831D000BF8B
:10144000206850E8030F216820F4807041E803020F
:10145000002AF5D1206850E8050F216820F001002E
:1014600041E80502002AF5D1206850E8050F2168FF
:1014700020F0400041E80502002AF5D1202084F840
:1014800042000020206300BF206850E8030F21685D
:1014900020F0100041E80302002AF5D1E06BFEF7CE
:1014A0000DFF02206063A08DE18D401A81B22046BD
:1014B000B6E0606C40F001006064480706D5BEF1FC
:1014C000000F03D0606C40F002006064880706D50E
:1014D000BEF1000F03D0606C40F004006064BCF10A
:1014E000000F09D545EA0E00B0FA80F0400903D19B
:1014F000606C40F008006064606C00283FF488AFC6
:1015000011F0200018BF002D02D0204600F0A4F9F1
:1015100020684069616C00F0400001F0080140184B
:1015200048D000BF206850E8030F216820F4907075
:1015300041E80302002AF5D1206850E8050F216830
:1015400020F0010041E80502002AF5D1206B0128B6
:101550000AD100BF206850E8030F216820F0100076
:1015600041E80302002AF5D1202084F8420000203F
:10157000206320684069400623D500BF206850E8FA
:10158000050F216820F0400041E80502002AF5D14E
:10159000E06BB0B141F64D01C0F600014163FEF7CA
:1015A000ADFE00283FF434AFE06B416B02B0BDE804
:1015B000B04008472046FFF7B9FE0020606402B043
:1015C000B0BD204602B0BDE8B040FFF7AFBE401A44
:1015D000216851E8031F226821F4907142E8031347
:1015E000002BF5D1216851E8051F226821F0010187
:1015F00042E80513002BF5D1202184F84210002188
:10160000216300BF216851E8031F226821F0100107
:1016100042E80313002BF5D1022281B22046626317
:1016200002B0BDE8B040FFF77FBE216A31F8022B5F
:101630006FF35F2242602162B7E60000002804BF1A
:101640000120704710B5044690F8410028B90020E9
:1016500084F84000204600F061F8242084F841001E
:101660002068D4E90212C36823F40053C3600369FD
:1016700023F440531A430261D4E904231143C2689E
:10168000194341F20C639A431143C1604169A26955
:1016900021F44071114343F60002C4F2010290426A
:1016A000416102D0FFF718FA01E0FFF729FA6268FA
:1016B000192148439100B0FBF1F048F21F51C5F2E7
:1016C000EB11A0FB01235A094FF69C73C0F6FF7380
:1016D00002FB0300322303EB0010A0FB0101F02307
:1016E00003EA5113206803EB0212C1F343111144C2
:1016F0008160016921F490410161416921F02A0171
:101700004161C16841F40051C16000202021606442
:1017100084F8411084F84210606310BD2DE9F04157
:1017200086B040F600050446C4F20105006805F5E0
:101730004051002788420597CDE90377029702D0F0
:1017400006B0BDE8F08141F21800C4F20200016861
:1017500002AE41F480410160016840F2440801F4A6
:101760008041019101990168C4F2020841F004012D
:1017700001600068314600F00400019001984FF4C8
:101780000070029002200390032005902846FEF787
:1017900007FF4FF48060CDE90207284631460497E1
:1017A000FEF7FEFE40F2700508F11400C2F20005DB
:1017B00080262021C5E900072846C5E90276C5E94B
:1017C0000477C5E90617FEF7A7FE002818BFFEF745
:1017D0006FFDE5636C6240F2B405C2F200051020B3
:1017E0000021C5E900802846C5E90216C5E90411B3
:1017F000C5E90611FEF790FE002818BFFEF758FD58
:10180000252000210022A5636C62FFF74BF82520FC
:10181000FFF738F806B0BDE8F0810000704700001F
:1018200070470000FEE70000FEE70000FEE7000052
:101830007047000070470000FEF7B8BF7047000017
:1018400040F2F800C2F20000FFF7C0BC406A00217D
:10185000C185C184FFF76ABD81B090F8421022298A
:101860001DD18268B2F5805F02D10169002948D09C
:10187000816AB2F5805F07D00AB9026922B10268B5
:10188000526802F07F0201E0026852680A70816AC1
:1018900001318162C18D01390A04C18501D001B0D5
:1018A00070470168CA6822F02002CA60CA6822F440
:1018B0008072CA604A6922F001024A61202180F8E0
:1018C000421000214163026B012A23D1016300BF52
:1018D000016851E8031F026821F0100142E8031378
:1018E000002BF5D101680A68D20606D500220092C5
:1018F0000A680092496800910099818D01B0FFF754
:1019000013BD0168826A49686FF35F2122F8021BE8
:101910008262BFE701B0FFF781BF000040F24010D4
:10192000C2F20000FFF704BDFEE7000090B0FEF732
:101930004BFF06AC20462821FEF746FC4FF48030D2
:1019400000250126079020460495CDE90255CDE9F2
:10195000005506960D95FFF7E7F820B1EFF31080DC
:1019600072B600BFFEE70F20CDE9000668460021F1
:10197000CDE902550495FEF7D1FF20B1EFF31080B9
:1019800072B600BFFEE741F21800C4F2020001681F
:10199000002241F0200101600168002401F02001D3
:1019A00006910699016841F004010160016801F0A7
:1019B00004010691069950F8041C41F0010140F819
:1019C000041C50F8040C002100F001000690069859
:1019D0000E20FEF767FF0E20FEF754FF0F200021B8
:1019E0000022FEF75FFF0F20FEF74CFF40F2401091
:1019F00043F60001C2F20000C4F201010C234FF4CF
:101A0000E13280E81600C0E90344C0E90534C4614E
:101A1000FFF714FE18B1EFF3108072B6FEE740F244
:101A2000F800C2F200004FF080414CF24F33CDE994
:101A30000844CDE90644CDE900444F2280E8160071
:101A4000C0E903348461FFF75DFA20B1EFF3108041
:101A500072B600BFFEE74FF48050069040F2F800E7
:101A6000C2F2000006A9FFF7E1FA20B1EFF31080FF
:101A700072B600BFFEE70020CDE9000040F2F8009A
:101A8000C2F200006946FFF701FA28B1EFF31080B7
:101A900072B600BFFEE700BFFEE7000000000000D6
:101AA000000001020304060708090000000001020B
:101AB0000304010202030405060708090A0B0C0DC2
:101AC0000E0F1010E81A000800000020100000009F
:101AD00028010008F81A0008100000208007000004
:101AE000440100080000000000127A00010000001C
:081AF0001000000000000000DE
:04000005080000ED02
:00000001FF
