:020000040800F2
:10000000A00F00203502000809250008252400085B
:10001000052500082D040008B52E0008000000008A
:100020000000000000000000000000007D25000826
:10003000390600080000000079250008592600084C
:100040004F0200084F0200084F0200084F0200084C
:100050004F0200084F0200084F0200084F0200083C
:100060004F0200084F0200084F0200084F0200082C
:100070004F0200084F0200084F0200084F0200081C
:100080004F0200084F0200084F0200080000000065
:100090000000000000000000000000004F02000807
:1000A0004F0200084F0200084F0200084F020008EC
:1000B0004F0200084F0200084F0200084F020008DC
:1000C0004F0200084F0200084F0200084F020008CC
:1000D0004F020008A52E00084F0200080000000093
:1000E0004F0200084F0200084F0200080000000005
:1000F0000000000000000000000000004F020008A7
:10010000000000004F0200084F0200084F020008E4
:1001100000000000000000000000000000000000DF
:100120004F0200084F020008810400084F02000837
:100130004F02000800000000000000000000000066
:100140000000000000000000000000004F02000856
:100150004F0200084F020008910400084F020008F7
:100160004F0200084F0200080000000000000000DD
:10017000000000000000000000000000000000007F
:10018000000000004F020008000000000000000016
:100190004F02000800F002F800F03CF80AA090E8D6
:1001A000000C82448344AAF10107DA4501D100F032
:1001B00031F8AFF2090EBAE80F0013F0010F18BFC3
:1001C000FB1A43F001031847A4310000C4310000BA
:1001D000103A24BF78C878C1FAD8520724BF30C873
:1001E00030C144BF04680C60704700000023002445
:1001F00000250026103A28BF78C1FBD8520728BF37
:1002000030C148BF0B6070471FB502F092FF1FBDA1
:1002100010B510BD00F0D0F81146FFF7F5FF02F061
:1002200067FF00F0EEF803B4FFF7F2FF03BC00F045
:10023000F5F800000948804709480047FEE7FEE757
:10024000FEE7FEE7FEE7FEE7FEE7FEE7FEE7FEE786
:1002500004480549054A064B70470000012700087D
:1002600095010008A0090020A00F0020A00B00208D
:10027000A00B002053EA020C00F069802DE9F04B3E
:100280004FF00006002B1FBFB3FA83F503FA05F405
:1002900024FA05F65E4012BF1643B2FA82F502FA5E
:1002A00005F4C5F120051EBF22FA05FC44EA0C0442
:1002B000203556EA044C4FEA144418BF641C4FF032
:1002C00000084FF00009904271EB030C39D300296C
:1002D00019BFB1FA81F701FA07F6B0FA80F700FA10
:1002E00007F6C7F120071EBF20FA07FC46EA0C06F6
:1002F0002037B6FBF4FCA7EB0507103F07F01F0BF8
:10030000CBF120062CFA06F60CFA0BFB44BFB346E1
:100310000026202FA4BF5E464FF0000B5BEA060CC0
:1003200008BF4FF0010B19EB0B0948EB0608ABFBBC
:10033000027C06FB02CC0BFB03CCC01B71EB0C0157
:10034000C1E70B46024641464846BDE8F08B13B56F
:10035000084318BF4FF0FF300146AFF30080BDE8FF
:100360001C4070474FF0000200B513469446964675
:10037000203922BFA0E80C50A0E80C50B1F12001B8
:10038000BFF4F7AF090728BFA0E80C5048BF0CC066
:100390005DF804EB890028BF40F8042B08BF7047C4
:1003A00048BF20F8022B11F0804F18BF00F8012B36
:1003B0007047704770477047754600F02BF8AE469F
:1003C00005006946534620F00700854618B020B561
:1003D000FFF73EFFBDE820404FF000064FF000075A
:1003E0004FF000084FF0000BAC46ACE8C009ACE899
:1003F000C009ACE8C009ACE8C00921F007018D468E
:10040000704710B50446AFF300802046BDE81040A9
:10041000FFF709BF0048704710000020014918206D
:10042000ABBEFEE72600020070470000FFE7FEE7D4
:1004300082B00190ADF802104FF6FF70ADF80000E9
:10044000FFE7BDF80200411EADF8021098B1FFE7CA
:10045000BDF800100198421C0192007880EA112238
:1004600043F26410C0F6000030F8120080EA012068
:10047000ADF80000E5E7BDF8000002B070470000ED
:1004800080B540F27400C2F2000000F077F980BD40
:1004900080B540F2D400C2F2000000F06FF980BDD8
:1004A00082B001900198007810384AF6AB21CAF664
:1004B000AA21A0FB011000090090009943F26430CA
:1004C000C0F60000405C0199C8650098042807D375
:1004D000FFE701990868042262F30900886506E0D5
:1004E0000199086840F2FF3290438865FFE7019860
:1004F000806D02B07047000086B0059000208DF836
:1005000013000598806A03900598806910BBFFE787
:100510000398029003281BD80299DFE801F0020D2E
:100520000218059890F82F00C00720B1FFE70120BE
:100530008DF81300FFE70CE00598C06AB0F1C07FAA
:1005400004D1FFE701208DF81300FFE701E000E090
:10055000FFE745E005988069B0F5005F25D1FFE72A
:100560000398019003281ED80199DFE801F00206E4
:10057000021101208DF8130016E0059890F82F0065
:10058000C00720B1FFE701208DF81300FFE70BE063
:100590000598C06AB0F1C07F04D1FFE701208DF853
:1005A0001300FFE700E0FFE719E00398009003283D
:1005B00004D3FFE70098032804D00EE001208DF853
:1005C00013000BE0059890F82F00C00720B1FFE75B
:1005D00001208DF81300FFE700E0FFE7FFE7FFE7EA
:1005E0009DF8130006B0704784B003900291019209
:1005F000009303980168086820F480200860009840
:1006000003990968486003988068402809D1FFE78A
:100610000198039909688860029803990968C8607D
:1006200008E00298039909688860019803990968AD
:10063000C860FFE704B070477047000081B0EFF377
:10064000108072B60090FFE7FEE7000080B584B02E
:1006500002900298806D019000F00EFD00900298CB
:1006600090F8350002280DD0FFE7029980204865F8
:10067000FFE70299002081F83400FFE701208DF8A0
:100680000F0055E002980168086820F01600086025
:1006900002980168486920F0800048610298006C67
:1006A00020B9FFE70298806C38B1FFE70298016833
:1006B000086820F008000860FFE7029801680868F1
:1006C00020F001000860FFE7029800680068C0079A
:1006D000C8B1FFE700F0D0FC0099401A062811D3FA
:1006E000FFE70299202048650299032081F8350030
:1006F000FFE70299002081F83400FFE703208DF81E
:100700000F0015E0E0E70298C16D3F208840019995
:1007100088600299012081F83500FFE702990020E6
:1007200081F83400FFE7FFE700208DF80F00FFE7B6
:100730009DF80F0004B080BD82B00090009890F842
:100740003500022807D0FFE7009980204865012086
:100750008DF807000EE00099052081F8350000981B
:100760000168086820F001000860FFE700208DF8AC
:100770000700FFE79DF8070002B0704780B586B01C
:1007800005900020039040F20000C2F200000068D3
:1007900048F2B511C1F64E31A0FB0110800A02905B
:1007A0000598806D0190019800680490049805995F
:1007B000C96DC840000700281AD5FFE705980068F2
:1007C00000684007002812D5FFE70598016808680F
:1007D00020F0040008600598C16D08208840019948
:1007E00088600599486D40F001004865FFE7FFE724
:1007F00004980599C96DC840C007A0B1FFE70598E6
:1008000000684069000600280CD5FFE70598C16D17
:1008100001208840019988600599486D40F00200E8
:100820004865FFE7FFE704980599C96DC840400790
:10083000002814D5FFE705980068006880070028A5
:100840000CD5FFE70598C16D0420884001998860A8
:100850000599486D40F004004865FFE7FFE70498FC
:100860000599C96DC840C006002847D5FFE705981F
:1008700000680068000700283FD5FFE70598C16DB4
:10088000102088400199886005980068006840033E
:1008900000281AD5FFE705980068006800030028C3
:1008A00009D4FFE70598006C20B1FFE70598016CBB
:1008B0008847FFE708E00598806C20B1FFE70598BE
:1008C000816C8847FFE7FFE716E00598006800683D
:1008D000C005002807D4FFE705980168086820F0E4
:1008E00008000860FFE70598006C20B1FFE7059855
:1008F000016C8847FFE7FFE7FFE7FFE704980599EA
:10090000C96DC8408006002840F18D80FFE705983A
:1009100000680068C006002840F18480FFE7059861
:10092000C16D2020884001998860059890F83500B5
:10093000052834D1FFE705980168086820F0160003
:10094000086005980168486920F0800048610598B2
:10095000006C20B9FFE70598806C38B1FFE7059877
:100960000168086820F008000860FFE70598C16D7D
:100970003F208840019988600599012081F8350061
:10098000FFE70599002081F83400FFE70598006D26
:1009900020B1FFE70598016D8847FFE77BE00598E8
:1009A00000680068400300281AD5FFE70598006832
:1009B00000680003002809D4FFE70598406C20B1C7
:1009C000FFE70598416C8847FFE708E00598C06B92
:1009D00020B1FFE70598C16B8847FFE7FFE720E0FC
:1009E000059800680068C005002811D4FFE7059845
:1009F0000168086820F0100008600599012081F85E
:100A00003500FFE70599002081F83400FFE7FFE794
:100A10000598C06B20B1FFE70598C16B8847FFE7D9
:100A2000FFE7FFE7FFE70598406DA0B3FFE70598F4
:100A3000406DC00730B3FFE70599052081F8350008
:100A400005980168086820F001000860FFE7039836
:100A5000013003900299884201D9FFE707E0FFE7E0
:100A6000059800680068C0070028F0D1FFE70599E5
:100A7000012081F83500FFE70599002081F8340056
:100A8000FFE7FFE70598C06C20B1FFE70598C16C50
:100A90008847FFE7FFE706B080BD000080B586B05D
:100AA00004900020039000F0E7FA0290049820B927
:100AB000FFE701208DF81700A3E00498406A08B111
:100AC000FFE7FFE70499022081F83500FFE704996A
:100AD000002081F83400FFE704980168086820F0DE
:100AE00001000860FFE7049800680068C00790B143
:100AF000FFE700F0C1FA0299401A06280AD3FFE77F
:100B00000499202048650499032081F835008DF868
:100B1000170076E0E7E70498006800680390039800
:100B200048F23F01CFF21001084003900499009170
:100B30004868D1F808C0CB680A6940EA0C0018433D
:100B400010434A6910438A691043CA691043096A0D
:100B500001430398084303900498406A042808D18D
:100B6000FFE70499C86A096B01430398084303909F
:100B7000FFE70398049909680860049800684069D1
:100B80000390039820F0070003900498416A0398AB
:100B9000084303900498406A04281AD1FFE7049898
:100BA000816A0398084303900498C06A80B1FFE704
:100BB0000498FFF7A1FC50B1FFE704994020486575
:100BC0000499012081F835008DF8170019E0FFE73E
:100BD000FFE703980499096848610498FFF760FCEF
:100BE00001900498C16D3F20884001998860049964
:100BF00000204865049A012182F835108DF817000D
:100C0000FFE79DF8170006B080BD000080B588B0F2
:100C1000069005910492039300208DF80B0006982E
:100C2000806D0190FFE7069890F83400012804D108
:100C3000FFE702208DF81F0045E00699012081F8AA
:100C40003400FFE7FFE7069890F8350001282BD124
:100C5000FFE70699022081F83500069900204865D3
:100C600006980599049A039BFFF7BEFC0698C16D90
:100C70003F2088400199886006980168086840F024
:100C8000160008600698006C38B1FFE70698016806
:100C9000086840F008000860FFE7069801680868E7
:100CA00040F00100086009E0FFE70699002081F8A4
:100CB0003400FFE702208DF80B00FFE79DF80B00E2
:100CC0008DF81F00FFE79DF81F0008B080BD0000F1
:100CD00080B584B0039000F0CFF9029003980190A2
:100CE0000198013048B1FFE740F20400C2F2000071
:100CF0000178019808440190FFE7FFE700F0BCF994
:100D00000299401A0199884201D2FFE7F6E704B040
:100D100080BD00008BB00A900991002007900690DA
:100D200005900890FFE708980F2800F2A281FFE7DE
:100D300008990120884007900998006807990840A1
:100D4000069006980799884240F08E81FFE709983F
:100D5000406800F00300012807D0FFE709984068C9
:100D600000F0030002282FD1FFE70A988068059061
:100D700008984100032000FA01F105988843059086
:100D80000998C0680899490000FA01F105980843DC
:100D9000059005980A9988600A9840680590089916
:100DA000012000FA01F105988843059009984068F0
:100DB000C0F30010089900FA01F105980843059066
:100DC00005980A994860FFE70998406800F0030019
:100DD000032818D0FFE70A98C068059008984100DA
:100DE000032000FA01F1059888430590099880686E
:100DF0000899490000FA01F1059808430590059803
:100E00000A99C860FFE70998406800F003000228CB
:100E100026D1FFE70A9808996FF0030202EA510110
:100E20000844006A0590089800F0070081000F2030
:100E300000FA01F10598884305900998006908991E
:100E400001F00701890000FA01F1059808430590B7
:100E500005980A99089B02EA530211440862FFE7C9
:100E60000A980068059008984100032000FA01F1F3
:100E70000598884305900998406800F00300089998
:100E8000490000FA01F105980843059005980A9970
:100E90000860099880798007002800F0E480FFE767
:100EA000FFE70020049043F64400C4F2020001680A
:100EB00041F480410160006800F48040049004988F
:100EC000FFE7089820F0030043F60801C4F201018F
:100ED00040580590089800F0030081000F2000FAA8
:100EE00001F10598884305900A980021C4F2020197
:100EF000884203D1FFE70020039034E00A9840F2D3
:100F00000041C4F20201884203D1FFE701200290B0
:100F100026E00A9840F60001C4F20201884203D19B
:100F2000FFE70220019018E00A9840F60041C4F261
:100F30000201884203D1FFE7032000900AE00A99EA
:100F400041F20002C4F202020720914208BF0420CD
:100F50000090FFE700980190FFE701980290FFE7FB
:100F600002980390FFE70398C0B2089901F00301CB
:100F7000890000FA01F10598084305900598089941
:100F800021F0030143F60802C4F20102885043F63F
:100F90000840C4F20100006805900699059888434E
:100FA000059009988079C006002805D5FFE70699C5
:100FB000059808430590FFE7059843F60841C4F2F9
:100FC0000101086043F60C40C4F20100006805907E
:100FD000069905988843059009988079800600282D
:100FE00005D5FFE70699059808430590FFE70598A2
:100FF00043F60C41C4F20101086043F60440C4F218
:1010000001000068059006990598884305900998A5
:1010100080798007002805D5FFE7069905980843E1
:101020000590FFE7059843F60441C4F2010108600A
:1010300043F60040C4F20100006805900699059847
:101040008843059009988079C00728B1FFE7069981
:10105000059808430590FFE7059843F60041C4F260
:1010600001010860FFE7FFE7FFE7089801300890FB
:1010700059E60BB07047000040F69C10C2F2000029
:101080000068704740F20400C2F20000027840F6A7
:101090009C11C2F20001086810440860704700000B
:1010A00080B543F60041C4F20201086840F40070C4
:1010B0000860086840F480600860086840F4807048
:1010C0000860032000F08AF80F2000F005F800F017
:1010D0003BF8002080BD000080B582B0009040F257
:1010E0000000C2F20000006840F20401C2F20001F8
:1010F0000A784FF47A71B1FBF2F1B0FBF1F000F035
:10110000A5FD20B1FFE701208DF8070018E0009849
:101110000F280DD8FFE700994FF0FF30002200F0B4
:1011200043F8009840F20801C2F20001086003E0B1
:1011300001208DF8070003E000208DF80700FFE78D
:101140009DF8070002B080BD82B0FFE7002001904B
:1011500043F64400C4F20200016841F4804101609A
:10116000006800F4804001900198FFE7FFE700204D
:10117000009043F64000C4F20200016841F0805143
:101180000160006800F0805000900098FFE702B016
:101190007047000080B582B08DF807009DF9070008
:1011A00001F08AFE02B080BD80B586B08DF81700D0
:1011B000049103920020029001F096FE02909DF9A6
:1011C0001700019002980499039A01F09FF90146D3
:1011D000019801F091FE06B080BD000080B582B09C
:1011E0000190019801F0AAFE02B080BD80B584B0E4
:1011F00002900191029820B9FFE701208DF80F00BD
:1012000021E1019843F60041C4F20201096801F0AE
:101210000701884212D9FFE7019943F60040C4F262
:1012200002000170006800F007000199884204D0B4
:10123000FFE701208DF80F0005E1FFE70298007835
:10124000800700282AD5FFE7029800784007002889
:1012500009D5FFE743F60801C4F20201086840F42B
:10126000E0500860FFE7029800780007002809D5E1
:10127000FFE743F60801C4F20201086840F4604049
:101280000860FFE743F60801C4F20201086820F095
:10129000F000029A926810430860FFE70298007815
:1012A000C00700286ED0FFE702984068012811D1DE
:1012B000FFE743F60000C4F20200006800F40031CA
:1012C0000020B0EB514F04D1FFE701208DF80F0053
:1012D000B9E02CE002984068022805D0FFE70298A8
:1012E0004068032811D1FFE743F60000C4F2020072
:1012F000006800F000710020B0EB516F04D1FFE7EF
:1013000001208DF80F009EE010E043F60000C4F2CB
:101310000200006800F002010020B0EB510F04D180
:10132000FFE701208DF80F008DE0FFE7FFE743F6B0
:101330000801C4F20201086820F00300029A526812
:1013400010430860FFF798FE0090FFE743F608009F
:10135000C4F20200006800F00C0002994968B0EB8A
:10136000810F0ED0FFE7FFF787FE0099401A41F288
:101370008931884204D3FFE703208DF80F0062E033
:10138000E4E7FFE7019843F60041C4F2020109686F
:1013900001F00701884212D2FFE7019943F60040AD
:1013A000C4F202000170006800F007000199884251
:1013B00004D0FFE701208DF80F0044E0FFE702981A
:1013C0000078400700280CD5FFE743F60801C4F277
:1013D0000201086820F4E050029AD26810430860C5
:1013E000FFE702980078000700280DD5FFE743F6D5
:1013F0000801C4F20201086820F46040029A1269F0
:1014000040EAC2000860FFE700F04CF843F608012C
:10141000C4F202010968C9B20A0943F24C11C0F6CC
:101420000001895CC84040F20001C2F2000108607E
:1014300040F20800C2F200000068FFF74DFE0020F5
:101440008DF80F00FFE79DF80F0004B080BD00008D
:1014500040F20000C2F200000068704780B5FFF75C
:10146000F7FF43F60801C4F202010968C1F38222C2
:1014700043F25C11C0F60001895CC84080BD0000E9
:1014800080B5FFF7E5FF43F60801C4F202010968E1
:1014900089B24A0B43F25C11C0F60001895CC84076
:1014A00080BD000080B586B00020059004900390B8
:1014B000029043F60800C4F20200006800F00C003D
:1014C0000146019140B1FFE7019804280AD0FFE7E7
:1014D000019808280CD04FE042F20040C0F2F4001E
:1014E00002904FE047F64000C0F27D10029049E0C4
:1014F00043F60400C4F20200016801F03F010591C7
:1015000000684002002813D5FFE743F60400C4F248
:1015100002000068C0F3881047F64001C0F27D1158
:10152000A0FB0101059A0023FEF7A4FE049012E03F
:1015300043F60400C4F202000068C0F3881042F2CF
:101540000041C0F2F401A0FB0101059A0023FEF75F
:1015500091FE0490FFE743F60400C4F20200006825
:1015600000F44031022000EBD1300390049803993D
:10157000B0FBF1F0029005E042F20040C0F2F4004E
:101580000290FFE7029806B080BD000080B586B0EB
:101590000490049820B9FFE701208DF8170050E36C
:1015A00004980078C007002800F0A580FFE743F604
:1015B0000800C4F20200006800F00C00042813D0F8
:1015C000FFE743F60800C4F20200006800F00C00D8
:1015D00008281ED1FFE743F60400C4F202000068A9
:1015E0004002002815D5FFE743F60000C4F20200D0
:1015F000006800F400310020B0EB514F08D0FFE745
:101600000498406820B9FFE701208DF8170018E31F
:1016100070E0FFE704984068B0F5803F09D1FFE72C
:1016200043F60001C4F20201086840F4803008600B
:1016300020E004984068B0F5A02F0DD1FFE743F6F5
:101640000001C4F20201086840F4802008600868C4
:1016500040F4803008600CE043F60001C4F202015F
:10166000086820F480300860086820F48020086052
:10167000FFE7FFE7FFE704984068E8B1FFE7FFF7FF
:10168000FBFC0390FFE743F60000C4F20200006891
:1016900000F400310020B0EB514F0CD1FFE7FFF711
:1016A000EBFC0399401A652804D3FFE703208DF86B
:1016B0001700C6E2E7E71CE0FFF7DEFC0390FFE758
:1016C00043F60000C4F20200006800F4003100207C
:1016D000B0EB514F0CD0FFE7FFF7CEFC0399401A57
:1016E000652804D3FFE703208DF81700A9E2E7E798
:1016F000FFE7FFE7FFE7049800788007002840F144
:101700009680FFE743F60800C4F20200006810F07C
:101710000C0F13D0FFE743F60800C4F20200006884
:1017200000F00C0008282CD1FFE743F60400C4F2B7
:10173000020000684002002823D4FFE743F60000BF
:10174000C4F20200006800F002010020B0EB510F6B
:1017500009D0FFE70498C068012804D0FFE7012002
:101760008DF817006DE243F60001C4F2020108682B
:1017700020F0F800049A126940EAC2000860FFE70E
:1017800054E00498C06870B3FFE70021C4F2472119
:1017900001200860FFF770FC0390FFE743F60000AC
:1017A000C4F20200006800F002010020B0EB510F0B
:1017B0000CD1FFE7FFF760FC0399401A032804D31C
:1017C000FFE703208DF817003BE2E7E743F600014F
:1017D000C4F20201086820F0F800049A126940EA95
:1017E000C200086021E00021C4F247210020086007
:1017F000FFF742FC0390FFE743F60000C4F202004B
:10180000006800F002010020B0EB510F0CD0FFE7A0
:10181000FFF732FC0399401A032804D3FFE70320A3
:101820008DF817000DE2E7E7FFE7FFE7FFE7049811
:101830000078000700284BD5FFE70498406918B3EB
:10184000FFE740F68061C4F2472101200860FFF7FE
:1018500013FC0390FFE743F67400C4F20200006833
:1018600000F002010020B0EB510F0CD1FFE7FFF7B1
:1018700003FC0399401A032804D3FFE703208DF8E3
:101880001700DEE1E7E722E040F68061C4F247217D
:1018900000200860FFF7F0FB0390FFE743F67400B9
:1018A000C4F20200006800F002010020B0EB510F0A
:1018B0000CD0FFE7FFF7E0FB0399401A032804D39D
:1018C000FFE703208DF81700BBE1E7E7FFE7FFE73D
:1018D000049800784007002840F1CE80FFE7002000
:1018E0008DF8070043F64000C4F202000068C00013
:1018F000002815D4FFE7FFE70020009043F64000E2
:10190000C4F20200016841F080510160006800F0FB
:10191000805000900098FFE701208DF80700FFE756
:1019200047F20000C4F200000068C005002822D47D
:10193000FFE747F20001C4F20001086840F480703C
:101940000860FFF799FB0390FFE747F20000C4F23D
:1019500000000068C00500280CD4FFE7FFF78CFBEF
:101960000399401A032804D3FFE703208DF81700DA
:1019700067E1EAE7FFE7FFE704988068012809D1FB
:10198000FFE743F67001C4F20201086840F001006D
:1019900008601FE00498806805280DD1FFE743F632
:1019A0007001C4F20201086840F004000860086891
:1019B00040F0010008600CE043F67001C4F202013F
:1019C000086820F001000860086820F00400086042
:1019D000FFE7FFE7FFE704988068F8B1FFE7FFF74C
:1019E0004BFB0390FFE743F67000C4F2020000686F
:1019F00000F002010020B0EB510F0ED1FFE7FFF71E
:101A00003BFB0399401A41F28931884204D3FFE736
:101A100003208DF8170014E1E5E71EE0FFF72CFB2B
:101A20000390FFE743F67000C4F20200006800F084
:101A300002010020B0EB510F0ED0FFE7FFF71CFBB7
:101A40000399401A41F28931884204D3FFE7032009
:101A50008DF81700F5E0E5E7FFE79DF8070001289E
:101A600009D1FFE743F64001C4F20201086820F003
:101A700080500860FFE7FFE704988069002800F0C5
:101A8000DC80FFE743F60800C4F20200006800F0C3
:101A90000C00082800F08580FFE704988069022880
:101AA0005CD1FFE76021C4F2472100200860FFF706
:101AB000E3FA0390FFE743F60000C4F20200006877
:101AC00000F000710020B0EB516F0CD0FFE7FFF782
:101AD000D3FA0399401A032804D3FFE703208DF8B3
:101AE0001700AEE0E7E70499C869D1F820C04B6A57
:101AF0008A6A40EA0C0040EA8310D2034FF6FF7373
:101B00009A43A2F580321043C96A40EA016043F665
:101B10000401C4F2020108606021C4F247210120DF
:101B20000860FFF7A9FA0390FFE743F60000C4F24C
:101B30000200006800F000710020B0EB516F0CD182
:101B4000FFE7FFF799FA0399401A032804D3FFE748
:101B500003208DF8170074E0E7E721E06021C4F26C
:101B6000472100200860FFF787FA0390FFE743F65C
:101B70000000C4F20200006800F000710020B0EB29
:101B8000516F0CD0FFE7FFF777FA0399401A03284B
:101B900004D3FFE703208DF8170052E0E7E7FFE7E3
:101BA0004AE004988069012804D1FFE701208DF8FC
:101BB000170046E043F60400C4F2020000680290F9
:101BC00004988069012831D0FFE7029800F4800072
:101BD0000499C969884229D1FFE7029800F03F00C3
:101BE0000499096A884221D1FFE7029847F6C0713B
:101BF00008400499496AB0EB811F17D1FFE70298AA
:101C000000F440300499896AC9034FF6FF7291438A
:101C1000A1F58031884209D1FFE7029800F0706099
:101C20000499C96AB0EB016F04D0FFE701208DF879
:101C3000170006E0FFE7FFE7FFE700208DF8170039
:101C4000FFE79DF8170006B080BD000080B582B0A8
:101C50000190019800F0D6FC02B080BD82B00190E6
:101C6000ADF8021002B0704781B0009001B070472B
:101C700080B592B01190119800680068109011988A
:101C80000068C0680F901198006840690E900020AD
:101C90000D900C90109800F00F000D900D9888B9E1
:101CA000FFE79DF84000800600280AD5FFE79DF871
:101CB0003C008006002804D5FFE7119800F0CCFE18
:101CC000E3E1FFE70D98002800F0C280FFE79DF8F0
:101CD0003800C00738B9FFE7BDF83C0010F4907F2A
:101CE00000F0B680FFE79DF84000C00758B1FFE75D
:101CF0009DF83D00C00730B1FFE71199086C40F036
:101D000001000864FFE79DF84000400700280BD55C
:101D1000FFE79DF83800C00730B1FFE71199086C64
:101D200040F002000864FFE79DF8400080070028AB
:101D30000BD5FFE79DF83800C00730B1FFE71199D8
:101D4000086C40F004000864FFE79DF840000007BD
:101D5000002811D5FFE79DF83C008006002805D437
:101D6000FFE79DF83800C00730B1FFE71199086C14
:101D700040F008000864FFE71198006C002866D066
:101D8000FFE79DF84000800600280AD5FFE79DF890
:101D90003C008006002804D5FFE7119800F05CFEA7
:101DA000FFE7119800684069C0F380100C9011980B
:101DB000006C0007002804D4FFE70C9800283ED0F0
:101DC000FFE7119800F0CEFD1198006840694006C9
:101DD00000282FD5FFE7FFE7FFE71198006850E8DC
:101DE000050F20F040000B90FFE70B991198026857
:101DF00042E805100028F0D1FFE7FFE71198806B5B
:101E000098B1FFE71198816B42F21570C0F600009F
:101E100008651198806BFEF78FFC28B1FFE71198D9
:101E2000806B016D8847FFE703E01198FFF71CFF07
:101E3000FFE703E01198FFF717FFFFE706E01198AF
:101E4000FFF712FF119900200864FFE7FFE71CE18C
:101E50001198006B012840F0F880FFE79DF84000E2
:101E6000C006002840F1F180FFE79DF83C00C00665
:101E7000002840F1EA80FFE7FFE700200A90119870
:101E8000006800680A901198006840680A900A98F3
:101E9000FFE7119800684069400600287ED5FFE7FB
:101EA0001198806B00684068ADF82600BDF82600E8
:101EB000002872D0FFE7BDF826001199898D88426D
:101EC0006BDAFFE7BDF826001199C8851198806B81
:101ED000C069B0F5807F58D0FFE7FFE7FFE71198B2
:101EE000006850E8030F20F480700890FFE708991D
:101EF0001198026842E803100028F0D1FFE7FFE7DD
:101F0000FFE7FFE71198006850E8050F20F0010097
:101F10000790FFE707991198026842E8051000282A
:101F2000F0D1FFE7FFE7FFE7FFE71198006850E80F
:101F3000050F20F040000690FFE70699119802680F
:101F400042E805100028F0D1FFE7FFE711992020B3
:101F500081F83E00119900200863FFE7FFE7119820
:101F6000006850E8030F20F010000590FFE7059986
:101F70001198026842E803100028F0D1FFE7FFE75C
:101F80001198806BFEF762FBFFE71198818DC28D7F
:101F9000891A89B2FFF762FEFFE776E01199888D12
:101FA000C98D401AADF812001198C08D00284BD091
:101FB000FFE7BDF81200002846D0FFE7FFE7FFE784
:101FC0001198006850E8030F20F490700390FFE729
:101FD00003991198026842E803100028F0D1FFE746
:101FE000FFE7FFE7FFE71198006850E8050F20F0D2
:101FF00001000290FFE702991198026842E805107B
:102000000028F0D1FFE7FFE71199202081F83E007A
:10201000119900200863FFE7FFE71198006850E876
:10202000030F20F010000190FFE70199119802685A
:1020300042E803100028F0D1FFE7FFE71198BDF850
:102040001210FFF70BFEFFE71FE09DF840000006AF
:1020500000280AD5FFE79DF83C000006002804D5BB
:10206000FFE7119800F0D4FE0FE09DF84000400615
:1020700000280AD5FFE79DF83C004006002804D55B
:10208000FFE7119800F0B8FCFFE712B080BD000038
:1020900080B582B00090009820B9FFE701208DF84C
:1020A00007003EE00098806908B1FFE700E0FFE725
:1020B000009890F83D0040B9FFE70099002081F8B2
:1020C0003C00009800F032F8FFE70099242081F8E6
:1020D0003D0000980168C86820F40050C86000986E
:1020E00000F06CFD00980168086920F490400861D8
:1020F00000980168486920F02A004861009801684A
:10210000C86840F40050C860009900200864009A34
:10211000202182F83D10009A82F83E108DF80700C9
:10212000FFE79DF8070002B080BD000080B58CB0CD
:102130000B9000200A9009900890079006900B9849
:10214000006841F20001C4F20101884240F094802D
:10215000FFE7FFE70020059043F64400C4F20200C9
:10216000016841F010010160006800F01000059066
:102170000598FFE7FFE70020049043F63000C4F223
:102180000200016841F001010160006800F00100F7
:1021900004900498FFE74FF4C06006900220079077
:1021A0000020029008900320099007200A90002048
:1021B000C4F2020006A9FEF7ADFD029940F27400D8
:1021C000C2F20000039046F24042C4F202020260F2
:1021D0004FF0006242608160C1604FF48062026132
:1021E000416181614FF48072C26101624162FEF718
:1021F00055FC18B1FFE7FEF721FAFFE7FFE70B9860
:1022000040F27401C2F2000181630B988863FFE71A
:1022100040F2D400C2F20000019046F2B841C4F28C
:10222000020101604FF000614160402181600021A6
:10223000C1604FF48062026141618161C1610162EC
:102240004162FEF72BFC18B1FFE7FEF7F7F9FFE755
:10225000FFE70B9840F2D401C2F2000141630B98F2
:102260008863FFE72520009000221146FEF79CFFBF
:102270000098FEF78FFFFFE70CB080BD80B584B0FB
:1022800002900191ADF80220029890F83E002028BB
:1022900028D1FFE7019820B1FFE7BDF8020020B97F
:1022A000FFE701208DF80F0020E0FFE7029890F88B
:1022B0003C00012804D1FFE702208DF80F0015E053
:1022C0000299012081F83C00FFE7FFE70299002016
:1022D000086302980199BDF8022000F00DFD8DF809
:1022E0000F0003E002208DF80F00FFE79DF80F00BC
:1022F00004B080BD81B0009001B0704781B0009003
:1023000001B0704780B586B004900391ADF80A2003
:10231000049890F83D00202874D1FFE7039820B17D
:10232000FFE7BDF80A0020B9FFE701208DF817008C
:102330006CE0FFE7049890F83C00012804D1FFE727
:1023400002208DF8170061E00499012081F83C001B
:10235000FFE7FFE7039804990862BDF80A000499B3
:102360008884BDF80A000499C88404990020086490
:10237000049A212182F83D1004994A6B42F6D1015A
:10238000C0F60001D16304994A6B42F64D11C0F6C4
:102390000001116404994A6B42F23571C0F60001E4
:1023A000D1640499496B086503A8019004980268F8
:1023B000406B019909680432BDF80A30FEF726FC2B
:1023C000049801686FF040000860FFE7049900205E
:1023D00081F83C00FFE7FFE7FFE70498006850E85A
:1023E000050F40F080000090FFE700990498026814
:1023F00042E805100028F0D1FFE7FFE700208DF844
:10240000170003E002208DF81700FFE79DF8170082
:1024100006B080BD81B0009001B0704781B00090DF
:1024200001B07047FFE7FEE780B584B0FFE700200A
:10243000039043F63000C4F20200016841F48001C9
:102440000160006800F4800003900398FFE73A20E1
:102450000090002201921146FEF7A6FE0098FEF7BA
:1024600099FE019A462002901146FEF79DFE0298C1
:10247000FEF790FE04B080BD82B0FFE7002001901F
:1024800043F63000C4F20200016841F080010160AF
:10249000006800F0800001900198FFE7FFE700204E
:1024A000009043F63000C4F20200016841F00101DF
:1024B0000160006800F0010000900098FFE702B0A2
:1024C0007047000080B582B040F23410C2F20000C4
:1024D000019041F20001C4F2010101604FF4E131C9
:1024E000416000218160C16001610C224261816113
:1024F000C161FFF7CDFD18B1FFE7FEF79FF8FFE7D9
:1025000002B080BDFFE7FEE7FFE7FEE788B0079077
:1025100006910592079800F0070004900498C0F116
:102520000700052803D3FFE70420019004E0049886
:10253000C0F107000190FFE7019803900498043070
:10254000062803D8FFE70020009003E00498033832
:102550000090FFE70098029006980399012202FA82
:1025600001F101390840029B984005999A40013ACF
:102570001140084308B070477047000070470000E2
:1025800080B584B0039000200290FFE702980328F2
:1025900017D8FFE703980299405C40F67C11C2F21D
:1025A00000010B6840F27C52C2F20002D05408686D
:1025B00001306FF39F200860FFE70298013002901E
:1025C000E4E740F23410C2F2000000680068000640
:1025D000002814D5FFE740F67C10C2F200000190FD
:1025E000028840F23410C2F2000040F27C51C2F284
:1025F0000001FFF787FE019900200860FFE704B0A3
:1026000080BD000080B582B0009000980138B0F124
:10261000807F03D3FFE70120019019E00098013883
:102620004EF21401CEF2000108604FF0FF300F218E
:1026300000F062FC4EF21801CEF2000100200860AA
:102640004EF21002CEF20002072111600190FFE766
:10265000019802B080BD000080B5FEF713FD80BD7B
:1026600080B594B008A83021FDF77CFE00200790CB
:102670000690059004900390FFE70020029043F637
:102680004000C4F20200016841F08051016000681E
:1026900000F0805002900298FFE7FFE700200190D1
:1026A00047F20000C4F200000168022262F38F3199
:1026B0000160006800F4404001900198FFE70120AC
:1026C00008904FF48030099000200E9008A8FEF783
:1026D0005DFF18B1FFE7FDF7B1FFFFE70F200390A3
:1026E00001200490002105910691079103A8FEF7AF
:1026F0007DFD18B1FFE7FDF7A1FFFFE714B080BD36
:102700004EF68851CEF20001086840F4700008606F
:102710007047000080B582B001900198806B0090F6
:1027200000990020C8850099C8840098FFF79CFA9A
:1027300002B080BD80B584B0039000200290039861
:10274000806B0190019800684069C0B2C009029096
:10275000019890F83D0021280AD1FFE7029838B18E
:10276000FFE701990020C884019800F059F9FFE7BC
:10277000019800684069C0F380100290019890F8B9
:102780003E0022280AD1FFE7029838B1FFE70199FD
:102790000020C885019800F0E5F8FFE70199086C72
:1027A00040F0100008640198FFF75EFA04B080BDA5
:1027B00080B586B005900598806B049005980068F8
:1027C0000068C00500285AD4FFE704990020C88596
:1027D000FFE7FFE70498006850E8030F20F48070DB
:1027E0000390FFE703990498026842E80310002869
:1027F000F0D1FFE7FFE7FFE7FFE70498006850E844
:10280000050F20F001000290FFE70299049802688A
:1028100042E805100028F0D1FFE7FFE7FFE7FFE7F8
:102820000498006850E8050F20F040000190FFE791
:1028300001990498026842E805100028F0D1FFE7EA
:10284000FFE70499202081F83E000498006B0128DE
:1028500014D1FFE7FFE7FFE70498006850E8030F93
:1028600020F010000090FFE700990498026842E809
:1028700003100028F0D1FFE7FFE7FFE7FFE7049828
:10288000006B012805D1FFE70498818DFFF7E6F979
:1028900003E00498FFF72EFDFFE706B080BD0000BF
:1028A00080B582B001900198806B00900098006B19
:1028B000012806D1FFE70098818D4908FFF7CEF97E
:1028C00003E00098FFF71AFDFFE702B080BD0000AB
:1028D00080B584B003900398806B029003980068E1
:1028E0000068C00500282AD4FFE702990020C884A8
:1028F000FFE7FFE70298006850E8050F20F080002E
:102900000190FFE701990298026842E8051000284B
:10291000F0D1FFE7FFE7FFE7FFE70298006850E824
:10292000030F40F040000090FFE700990298026812
:1029300042E803100028F0D1FFE7FFE703E0029828
:10294000FFF768FDFFE704B080BD000080B582B0EE
:1029500001900198806B00900098FFF75FFD02B036
:1029600080BD000084B00390FFE7FFE70398006894
:1029700050E8030F20F490700290FFE7029903984B
:10298000026842E803100028F0D1FFE7FFE7FFE705
:10299000FFE70398006850E8050F20F00100019060
:1029A000FFE701990398026842E805100028F0D17A
:1029B000FFE7FFE70398006B012814D1FFE7FFE76B
:1029C000FFE70398006850E8030F20F01000009024
:1029D000FFE700990398026842E803100028F0D14D
:1029E000FFE7FFE7FFE70399202081F83E00039906
:1029F0000020086304B0704780B582B00190019850
:102A00000168C86820F04000C8600199202081F862
:102A10003D000198FFF7FEFC002002B080BD0000E1
:102A200082B00190FFE7FFE70198006850E8030FCC
:102A300020F0C0000090FFE700990198026842E88A
:102A400003100028F0D1FFE7FFE70199202081F86B
:102A50003D0002B07047000080B586B00490049835
:102A600090F83E00222840F0A180FFE7049880689B
:102A7000B0F5805F15D1FFE70498006988B9FFE7DA
:102A8000002003900498806A0290049800684068CF
:102A90006FF35F20029908800499886A0230886287
:102AA00025E00498806A03900020029004988068D2
:102AB000B0F5805F08D0FFE70498806850B9FFE761
:102AC0000498006930B9FFE70498006840680399EA
:102AD000087007E004980068406800F07F000399E0
:102AE0000870FFE70499886A01308862FFE704995B
:102AF000C88D0138C8850004002853D1FFE7049829
:102B00000168C86820F02000C86004980168C8689F
:102B100020F48070C86004980168486920F00100C2
:102B200048610499202081F83E000498006B012838
:102B300030D1FFE7049900200863FFE7FFE704981E
:102B4000006850E8030F20F010000190FFE70199A2
:102B50000498026842E803100028F0D1FFE7FFE77D
:102B6000049800680068C00600280ED5FFE7FFE75C
:102B700000200090049800680068009004980068A5
:102B8000406800900098FFE7FFE70498818DFFF709
:102B900065F803E00498FFF7ADFBFFE700208DF830
:102BA000170007E000208DF8170003E002208DF8E1
:102BB0001700FFE79DF8170006B080BD80B586B00E
:102BC000059005980068006920F44050059A116846
:102BD000D26810430861059988680B694A69C96918
:102BE000184310430843049005980068C06849F2F0
:102BF0000C6188430499084305990968C8600598E1
:102C00000068406920F44070059A11689269104389
:102C100048610598006841F20001C4F20101884250
:102C200009D0FFE70598006841F20041C4F20101B4
:102C3000884204D1FFE7FEF723FC039003E0FEF790
:102C40000DFC0390FFE70598C069B0F5004F29D14E
:102C5000FFE703981921A0FB0101059A136802936D
:102C600053685A00DB0FFDF705FB0299864648F2D0
:102C70001F53C5F2EB13AEFB0320420910014FF0C6
:102C8000640C02FB1CEC322202EBCC02A2FB0332EE
:102C9000F82303EA521300EB4300C2F3421210443C
:102CA000886026E003981921A0FB0101059A1368AA
:102CB000019353689A009B0FFDF7DCFA0199844653
:102CC00048F21F52C5F2EB12ACFB023043096420FC
:102CD00003FB10CC322000EB0C10A0FB0202F02012
:102CE00000EA521000EB0310C2F343121044886054
:102CF000FFE706B080BD000080B588B00790069160
:102D0000ADF81620069807998862BDF81600079955
:102D10008885079900200864079A222182F83E10CE
:102D200007998A6B42F2B171C0F60001D16307992D
:102D30008A6B42F6A101C0F60001116407998A6B03
:102D400042F23571C0F60001D1640799896B0865BC
:102D500006A8049007980168806B0431049A1268F1
:102D6000BDF81630FDF752FFFFE7002003900798EB
:102D70000068006803900798006840680390039813
:102D8000FFE7FFE70799002081F83C00FFE707987D
:102D90000069A0B1FFE7FFE7FFE70798006850E888
:102DA000030F40F480700290FFE7029907980268D1
:102DB00042E803100028F0D1FFE7FFE7FFE7FFE755
:102DC000FFE70798006850E8050F40F00100019008
:102DD000FFE701990798026842E805100028F0D142
:102DE000FFE7FFE7FFE7FFE70798006850E8050FF8
:102DF00040F040000090FFE700990798026842E821
:102E000005100028F0D1FFE7FFE7002008B080BDE3
:102E100083B00190019890F83D0021283AD1FFE756
:102E200001988068B0F5805F13D1FFE701980069D1
:102E300078B9FFE70198006A0090009800886FF366
:102E40005F200199096848600199086A02300862A8
:102E500008E0019A106A411C116200780199096822
:102E60004860FFE70199C88C0138C884000468B93C
:102E7000FFE701980168C86820F08000C8600198E9
:102E80000168C86840F04000C860FFE700208DF886
:102E90000B0003E002208DF80B00FFE79DF80B000C
:102EA00003B0704780B540F23410C2F20000FEF764
:102EB000DFFE80BDFFE7FEE781B08DF803009DF9DE
:102EC000030000280ED4FFE79DF9031001F01F0254
:102ED000012090404A094EF20011CEF2000141F863
:102EE0002200FFE701B070474EF60C50CEF2000012
:102EF0000068C0F30220704782B08DF8070000918F
:102F00009DF9070000280AD4FFE7009800019DF909
:102F100007104EF20042CEF2000288540BE00098F7
:102F200000019DF8071001F00F014EF61452CEF289
:102F300000028854FFE702B07047000083B002909F
:102F4000029800F0070000904EF60C51CEF20001FE
:102F50000868019001984FF6FF0210400190019817
:102F6000009A40EA02200022C0F2FA521043019077
:102F70000198086003B0704780B584B00020ADF8B8
:102F80000E00ADF80C00FFE740F27850C2F20000EE
:102F9000006840F27401C2F2000109684968C1F595
:102FA0008061884200F0A180FFE740F27000C2F229
:102FB0000000007820BBFFE740F27850C2F200002A
:102FC000026840F27811C2F200018A5C40F6841176
:102FD000C2F200010A7002680132026002686FF3F7
:102FE0009F2202600068097808446FF39F20ADF8C3
:102FF0000E0040F27001C2F200010220087073E07E
:1030000040F27000C2F200000078022829D1FFE7E8
:10301000FFE740F27850C2F200000068BDF80E10E1
:10302000884217D0FFE740F27851C2F200010B68E6
:1030300040F27810C2F20000C05C40F68412C2F286
:103040000002D05408680130086008686FF39F20C0
:103050000860DEE740F27001C2F200010320087050
:1030600041E040F27000C2F200000078032839D13C
:10307000FFE740F68410C2F20000029003301421F2
:10308000FDF7D6F90299ADF80C00BDF80C00B1F8C7
:103090000110884207D0FFE740F68011C2F200011C
:1030A0000220C87006E040F68011C2F20001012043
:1030B000C870FFE740F68010C2F2000001900321C3
:1030C000017001780330FDF7B3F901460198A0F8CB
:1030D0000110FFF755FA40F27001C2F20001002022
:1030E0000870FFE7FFE7FFE74EE7012004B080BD6F
:1030F00080B582B000200190FDF7D2FFFFF7B0FA53
:10310000FFF7BAF9FFF790F9FFF7DCF940F2341056
:10311000C2F2000040F27811C2F200014FF4806266
:10312000FFF7ACF8FFE76420FDF7D2FDFFF724FFBF
:10313000F9E7F1EE100A4FF6FF71C0F2C03120EA54
:10314000010040F04070E1EE100A704700000000FE
:103150000000000001020304060708090000000047
:103160000102030400002110422063308440A55076
:10317000C660E770088129914AA16BB18CC1ADD1BD
:10318000CEE1EFF13112100273325222B552944265
:10319000F772D662399318837BB35AA3BDD39CC30D
:1031A000FFF3DEE36224433420040114E664C774B1
:1031B000A44485546AA54BB528850995EEE5CFF55D
:1031C000ACC58DD55336722611163006D776F66605
:1031D0009556B4465BB77AA719973887DFF7FEE7AD
:1031E0009DD7BCC7C448E5588668A77840086118D1
:1031F00002282338CCC9EDD98EE9AFF948896999FD
:103200000AA92BB9F55AD44AB77A966A711A500AA4
:10321000333A122AFDDBDCCBBFFB9EEB799B588B4C
:103220003BBB1AABA66C877CE44CC55C222C033CF0
:10323000600C411CAEED8FFDECCDCDDD2AAD0BBD9C
:10324000688D499D977EB66ED55EF44E133E322E44
:10325000511E700E9FFFBEEFDDDFFCCF1BBF3AAFEC
:10326000599F788F8891A981CAB1EBA10CD12DC14A
:103270004EF16FE18010A100C230E32004502540E0
:1032800046706760B9839893FBA3DAB33DC31CD340
:103290007FE35EF3B1029012F322D2323542145230
:1032A00077625672EAB5CBA5A89589856EF54FE58C
:1032B0002CD50DC5E234C324A01481046674476480
:1032C00024540544DBA7FAB79987B8975FE77EF7E0
:1032D0001DC73CD7D326F2369106B01657667676D0
:1032E000154634564CD96DC90EF92FE9C899E989AC
:1032F0008AB9ABA94458654806782768C018E10820
:103300008238A3287DCB5CDB3FEB1EFBF98BD89B7F
:10331000BBAB9ABB754A545A376A167AF10AD01A6F
:10332000B32A923A2EFD0FED6CDD4DCDAABD8BADCB
:10333000E89DC98D267C076C645C454CA23C832CBF
:10334000E01CC10C1FEF3EFF5DCF7CDF9BAFBABF1F
:10335000D98FF89F176E367E554E745E932EB23E0F
:10336000D10EF01E0006101600061016903300084D
:103370000000002010000000D0010008A033000869
:1033800010000020900F0000EC0100080000000079
:103390000024F40001000000100000000000000004
:040000050800019559
:00000001FF
