:020000040800F2
:100000001819002035020008512F0008012D0008A2
:100010004D2F00082D040008D53B0008000000000B
:10002000000000000000000000000000C52F0008D4
:100030005906000800000000C12F0008193100080F
:100040004F0200084F0200084F0200084F0200084C
:100050004F0200084F0200084F0200084F0200083C
:100060004F0200084F0200084F0200084F0200082C
:100070004F0200084F0200084F0200084F0200081C
:1000800081040008910400084F02000800000000ED
:100090000000000000000000000000004F02000807
:1000A0004F020008D53100084F0200084F02000837
:1000B0004F0200084F0200084F0200084F020008DC
:1000C0004F0200084F0200084F0200084F020008CC
:1000D0004F020008B53B0008C53B000800000000C7
:1000E0004F0200084F0200084F0200080000000005
:1000F0000000000000000000000000004F020008A7
:10010000000000004F0200084F0200084F020008E4
:1001100000000000000000000000000000000000DF
:100120004F0200084F020008A10400084F02000817
:100130004F02000800000000000000000000000066
:100140000000000000000000000000004F02000856
:100150004F0200084F020008B10400084F020008D7
:100160004F0200084F0200080000000000000000DD
:10017000000000000000000000000000000000007F
:10018000000000004F020008000000000000000016
:100190004F02000800F002F800F03CF80AA090E8D6
:1001A000000C82448344AAF10107DA4501D100F032
:1001B00031F8AFF2090EBAE80F0013F0010F18BFC3
:1001C000FB1A43F0010318470442000024420000D8
:1001D000103A24BF78C878C1FAD8520724BF30C873
:1001E00030C144BF04680C60704700000023002445
:1001F00000250026103A28BF78C1FBD8520728BF37
:1002000030C148BF0B6070471FB503F0C2FF1FBD70
:1002100010B510BD00F0D0F81146FFF7F5FF03F060
:1002200011FF00F0EEF803B4FFF7F2FF03BC00F09B
:10023000F5F800000948804709480047FEE7FEE757
:10024000FEE7FEE7FEE7FEE7FEE7FEE7FEE7FEE786
:1002500004480549054A064B70470000C1310008B3
:100260009501000818130020181900201815002007
:100270001815002053EA020C00F069802DE9F04BBC
:100280004FF00006002B1FBFB3FA83F503FA05F405
:1002900024FA05F65E4012BF1643B2FA82F502FA5E
:1002A00005F4C5F120051EBF22FA05FC44EA0C0442
:1002B000203556EA044C4FEA144418BF641C4FF032
:1002C00000084FF00009904271EB030C39D300296C
:1002D00019BFB1FA81F701FA07F6B0FA80F700FA10
:1002E00007F6C7F120071EBF20FA07FC46EA0C06F6
:1002F0002037B6FBF4FCA7EB0507103F07F01F0BF8
:10030000CBF120062CFA06F60CFA0BFB44BFB346E1
:100310000026202FA4BF5E464FF0000B5BEA060CC0
:1003200008BF4FF0010B19EB0B0948EB0608ABFBBC
:10033000027C06FB02CC0BFB03CCC01B71EB0C0157
:10034000C1E70B46024641464846BDE8F08B13B56F
:10035000084318BF4FF0FF300146AFF30080BDE8FF
:100360001C4070474FF0000200B513469446964675
:10037000203922BFA0E80C50A0E80C50B1F12001B8
:10038000BFF4F7AF090728BFA0E80C5048BF0CC066
:100390005DF804EB890028BF40F8042B08BF7047C4
:1003A00048BF20F8022B11F0804F18BF00F8012B36
:1003B0007047704770477047754600F02BF8AE469F
:1003C00005006946534620F00700854618B020B561
:1003D000FFF73EFFBDE820404FF000064FF000075A
:1003E0004FF000084FF0000BAC46ACE8C009ACE899
:1003F000C009ACE8C009ACE8C00921F007018D468E
:10040000704710B50446AFF300802046BDE81040A9
:10041000FFF709BF0048704710000020014918206D
:10042000ABBEFEE72600020070470000FFE7FEE7D4
:1004300082B00190ADF802104FF6FF70ADF80000E9
:10044000FFE7BDF80200411EADF8021098B1FFE7CA
:10045000BDF800100198421C0192007880EA112238
:1004600044F2C410C0F6000030F8120080EA012007
:10047000ADF80000E5E7BDF8000002B070470000ED
:1004800080B540F23C10C2F2000000F087F980BD58
:1004900080B540F29C10C2F2000000F07FF980BDF0
:1004A00080B540F27C00C2F2000000F077F980BD18
:1004B00080B540F2DC00C2F2000000F06FF980BDB0
:1004C00082B001900198007810384AF6AB21CAF644
:1004D000AA21A0FB011000090090009944F2C43049
:1004E000C0F60000405C0199C8650098042807D355
:1004F000FFE701990868042262F30900886506E0B5
:100500000199086840F2FF3290438865FFE701983F
:10051000806D02B07047000086B0059000208DF815
:1005200013000598806A03900598806910BBFFE767
:100530000398029003281BD80299DFE801F0020D0E
:100540000218059890F82F00C00720B1FFE701209E
:100550008DF81300FFE70CE00598C06AB0F1C07F8A
:1005600004D1FFE701208DF81300FFE701E000E070
:10057000FFE745E005988069B0F5005F25D1FFE70A
:100580000398019003281ED80199DFE801F00206C4
:10059000021101208DF8130016E0059890F82F0045
:1005A000C00720B1FFE701208DF81300FFE70BE043
:1005B0000598C06AB0F1C07F04D1FFE701208DF833
:1005C0001300FFE700E0FFE719E00398009003281D
:1005D00004D3FFE70098032804D00EE001208DF833
:1005E00013000BE0059890F82F00C00720B1FFE73B
:1005F00001208DF81300FFE700E0FFE7FFE7FFE7CA
:100600009DF8130006B0704784B0039002910192E8
:10061000009303980168086820F48020086000981F
:1006200003990968486003988068402809D1FFE76A
:100630000198039909688860029803990968C8605D
:1006400008E002980399096888600198039909688D
:10065000C860FFE704B070477047000081B0EFF357
:10066000108072B60090FFE7FEE7000080B584B00E
:1006700002900298806D019000F03AFD009002987F
:1006800090F8350002280DD0FFE7029980204865D8
:10069000FFE70299002081F83400FFE701208DF880
:1006A0000F0055E002980168086820F01600086005
:1006B00002980168486920F0800048610298006C47
:1006C00020B9FFE70298806C38B1FFE70298016813
:1006D000086820F008000860FFE7029801680868D1
:1006E00020F001000860FFE7029800680068C0077A
:1006F000C8B1FFE700F0FCFC0099401A062811D3AE
:10070000FFE70299202048650299032081F835000F
:10071000FFE70299002081F83400FFE703208DF8FD
:100720000F0015E0E0E70298C16D3F208840019975
:1007300088600299012081F83500FFE702990020C6
:1007400081F83400FFE7FFE700208DF80F00FFE796
:100750009DF80F0004B080BD82B00090009890F822
:100760003500022807D0FFE7009980204865012066
:100770008DF807000EE00099052081F835000098FB
:100780000168086820F001000860FFE700208DF88C
:100790000700FFE79DF8070002B0704780B586B0FC
:1007A00005900020039040F20000C2F200000068B3
:1007B00048F2B511C1F64E31A0FB0110800A02903B
:1007C0000598806D0190019800680490049805993F
:1007D000C96DC840000700281AD5FFE705980068D2
:1007E00000684007002812D5FFE7059801680868EF
:1007F00020F0040008600598C16D08208840019928
:1008000088600599486D40F001004865FFE7FFE703
:1008100004980599C96DC840C007A0B1FFE70598C5
:1008200000684069000600280CD5FFE70598C16DF7
:1008300001208840019988600599486D40F00200C8
:100840004865FFE7FFE704980599C96DC840400770
:10085000002814D5FFE70598006800688007002885
:100860000CD5FFE70598C16D042088400199886088
:100870000599486D40F004004865FFE7FFE70498DC
:100880000599C96DC840C006002847D5FFE70598FF
:1008900000680068000700283FD5FFE70598C16D94
:1008A000102088400199886005980068006840031E
:1008B00000281AD5FFE705980068006800030028A3
:1008C00009D4FFE70598006C20B1FFE70598016C9B
:1008D0008847FFE708E00598806C20B1FFE705989E
:1008E000816C8847FFE7FFE716E00598006800681D
:1008F000C005002807D4FFE705980168086820F0C4
:1009000008000860FFE70598006C20B1FFE7059834
:10091000016C8847FFE7FFE7FFE7FFE704980599C9
:10092000C96DC8408006002840F18D80FFE705981A
:1009300000680068C006002840F18480FFE7059841
:10094000C16D2020884001998860059890F8350095
:10095000052834D1FFE705980168086820F01600E3
:10096000086005980168486920F080004861059892
:10097000006C20B9FFE70598806C38B1FFE7059857
:100980000168086820F008000860FFE70598C16D5D
:100990003F208840019988600599012081F8350041
:1009A000FFE70599002081F83400FFE70598006D06
:1009B00020B1FFE70598016D8847FFE77BE00598C8
:1009C00000680068400300281AD5FFE70598006812
:1009D00000680003002809D4FFE70598406C20B1A7
:1009E000FFE70598416C8847FFE708E00598C06B72
:1009F00020B1FFE70598C16B8847FFE7FFE720E0DC
:100A0000059800680068C005002811D4FFE7059824
:100A10000168086820F0100008600599012081F83D
:100A20003500FFE70599002081F83400FFE7FFE774
:100A30000598C06B20B1FFE70598C16B8847FFE7B9
:100A4000FFE7FFE7FFE70598406DA0B3FFE70598D4
:100A5000406DC00730B3FFE70599052081F83500E8
:100A600005980168086820F001000860FFE7039816
:100A7000013003900299884201D9FFE707E0FFE7C0
:100A8000059800680068C0070028F0D1FFE70599C5
:100A9000012081F83500FFE70599002081F8340036
:100AA000FFE7FFE70598C06C20B1FFE70598C16C30
:100AB0008847FFE7FFE706B080BD000080B586B03D
:100AC00004900020039000F013FB0290049820B9DA
:100AD000FFE701208DF81700A3E00498406A08B1F1
:100AE000FFE7FFE70499022081F83500FFE704994A
:100AF000002081F83400FFE704980168086820F0BE
:100B000001000860FFE7049800680068C00790B122
:100B1000FFE700F0EDFA0299401A06280AD3FFE732
:100B20000499202048650499032081F835008DF848
:100B3000170076E0E7E704980068006803900398E0
:100B400048F23F01CFF21001084003900499009150
:100B50004868D1F808C0CB680A6940EA0C0018431D
:100B600010434A6910438A691043CA691043096AED
:100B700001430398084303900498406A042808D16D
:100B8000FFE70499C86A096B01430398084303907F
:100B9000FFE70398049909680860049800684069B1
:100BA0000390039820F0070003900498416A03988B
:100BB000084303900498406A04281AD1FFE7049878
:100BC000816A0398084303900498C06A80B1FFE7E4
:100BD0000498FFF7A1FC50B1FFE704994020486555
:100BE0000499012081F835008DF8170019E0FFE71E
:100BF000FFE703980499096848610498FFF760FCCF
:100C000001900498C16D3F20884001998860049943
:100C100000204865049A012182F835108DF81700EC
:100C2000FFE79DF8170006B080BD000080B588B0D2
:100C3000069005910492039300208DF80B0006980E
:100C4000806D0190FFE7069890F83400012804D1E8
:100C5000FFE702208DF81F0045E00699012081F88A
:100C60003400FFE7FFE7069890F8350001282BD104
:100C7000FFE70699022081F83500069900204865B3
:100C800006980599049A039BFFF7BEFC0698C16D70
:100C90003F2088400199886006980168086840F004
:100CA000160008600698006C38B1FFE706980168E6
:100CB000086840F008000860FFE7069801680868C7
:100CC00040F00100086009E0FFE70699002081F884
:100CD0003400FFE702208DF80B00FFE79DF80B00C2
:100CE0008DF81F00FFE79DF81F0008B080BD0000D1
:100CF00080B584B0039000F0FBF902900398019056
:100D00000198013048B1FFE740F20400C2F2000050
:100D10000178019808440190FFE7FFE700F0E8F947
:100D20000299401A0199884201D2FFE7F6E704B020
:100D300080BD00008BB00A900991002007900690BA
:100D400005900890FFE708980F2800F2A281FFE7BE
:100D50000899012088400790099800680799084081
:100D6000069006980799884240F08E81FFE709981F
:100D7000406800F00300012807D0FFE709984068A9
:100D800000F0030002282FD1FFE70A988068059041
:100D900008984100032000FA01F105988843059066
:100DA0000998C0680899490000FA01F105980843BC
:100DB000059005980A9988600A98406805900899F6
:100DC000012000FA01F105988843059009984068D0
:100DD000C0F30010089900FA01F105980843059046
:100DE00005980A994860FFE70998406800F00300F9
:100DF000032818D0FFE70A98C068059008984100BA
:100E0000032000FA01F1059888430590099880684D
:100E10000899490000FA01F10598084305900598E2
:100E20000A99C860FFE70998406800F003000228AB
:100E300026D1FFE70A9808996FF0030202EA5101F0
:100E40000844006A0590089800F0070081000F2010
:100E500000FA01F1059888430590099800690899FE
:100E600001F00701890000FA01F105980843059097
:100E700005980A99089B02EA530211440862FFE7A9
:100E80000A980068059008984100032000FA01F1D3
:100E90000598884305900998406800F00300089978
:100EA000490000FA01F105980843059005980A9950
:100EB0000860099880798007002800F0E480FFE747
:100EC000FFE70020049043F64400C4F202000168EA
:100ED00041F480410160006800F48040049004986F
:100EE000FFE7089820F0030043F60801C4F201016F
:100EF00040580590089800F0030081000F2000FA88
:100F000001F10598884305900A980021C4F2020176
:100F1000884203D1FFE70020039034E00A9840F2B2
:100F20000041C4F20201884203D1FFE70120029090
:100F300026E00A9840F60001C4F20201884203D17B
:100F4000FFE70220019018E00A9840F60041C4F241
:100F50000201884203D1FFE7032000900AE00A99CA
:100F600041F20002C4F202020720914208BF0420AD
:100F70000090FFE700980190FFE701980290FFE7DB
:100F800002980390FFE70398C0B2089901F00301AB
:100F9000890000FA01F10598084305900598089921
:100FA00021F0030143F60802C4F20102885043F61F
:100FB0000840C4F20100006805900699059888432E
:100FC000059009988079C006002805D5FFE70699A5
:100FD000059808430590FFE7059843F60841C4F2D9
:100FE0000101086043F60C40C4F20100006805905E
:100FF000069905988843059009988079800600280D
:1010000005D5FFE70699059808430590FFE7059881
:1010100043F60C41C4F20101086043F60440C4F2F7
:101020000100006805900699059888430590099885
:1010300080798007002805D5FFE7069905980843C1
:101040000590FFE7059843F60441C4F201010860EA
:1010500043F60040C4F20100006805900699059827
:101060008843059009988079C00728B1FFE7069961
:10107000059808430590FFE7059843F60041C4F240
:1010800001010860FFE7FFE7FFE7089801300890DB
:1010900059E60BB07047000083B00290ADF806101F
:1010A000029840690090009ABDF8060002EA00012B
:1010B000904340EA01400299886103B07047000004
:1010C00082B00190ADF802108DF801209DF801006A
:1010D00028B1FFE7BDF802000199886105E0BDF87D
:1010E0000200000401998861FFE702B07047000028
:1010F00041F21430C2F200000068704740F2040070
:10110000C2F20000027841F21431C2F20001086814
:10111000104408607047000080B543F60041C4F2F7
:101120000201086840F400700860086840F48060BC
:101130000860086840F480700860032000F08AF8B6
:101140000F2000F005F800F03BF8002080BD000003
:1011500080B582B0009040F20000C2F2000000684A
:1011600040F20401C2F200010A784FF47A71B1FB37
:10117000F2F1B0FBF1F000F0A5FD20B1FFE7012096
:101180008DF8070018E000980F280DD8FFE70099A8
:101190004FF0FF30002200F043F8009840F20801C1
:1011A000C2F20001086003E001208DF8070003E0AF
:1011B00000208DF80700FFE79DF8070002B080BD12
:1011C00082B0FFE70020019043F64400C4F2020021
:1011D000016841F480410160006800F480400190A2
:1011E0000198FFE7FFE70020009043F64000C4F2BB
:1011F0000200016841F080510160006800F08050F9
:1012000000900098FFE702B07047000080B582B000
:101210008DF807009DF9070002F0DEFC02B080BDEA
:1012200080B586B08DF817000491039200200290DB
:1012300002F0EAFC02909DF91700019002980499CF
:10124000039A01F087FE0146019802F0E5FC06B022
:1012500080BD000080B582B00190019802F0FEFCD4
:1012600002B080BD80B584B002900191029820B98F
:10127000FFE701208DF80F0021E1019843F60041BE
:10128000C4F20201096801F00701884212D9FFE7A0
:10129000019943F60040C4F202000170006800F0BA
:1012A00007000199884204D0FFE701208DF80F0064
:1012B00005E1FFE702980078800700282AD5FFE7BC
:1012C000029800784007002809D5FFE743F6080197
:1012D000C4F20201086840F4E0500860FFE7029899
:1012E00000780007002809D5FFE743F60801C4F29B
:1012F0000201086840F460400860FFE743F6080117
:10130000C4F20201086820F0F000029A92681043CB
:101310000860FFE702980078C00700286ED0FFE75A
:1013200002984068012811D1FFE743F60000C4F29B
:101330000200006800F400310020B0EB514F04D1EE
:10134000FFE701208DF80F00B9E02CE0029840681B
:10135000022805D0FFE702984068032811D1FFE773
:1013600043F60000C4F20200006800F000710020A3
:10137000B0EB516F04D1FFE701208DF80F009EE024
:1013800010E043F60000C4F20200006800F0020121
:101390000020B0EB510F04D1FFE701208DF80F00C2
:1013A0008DE0FFE7FFE743F60801C4F20201086899
:1013B00020F00300029A526810430860FFF798FE7D
:1013C0000090FFE743F60800C4F20200006800F056
:1013D0000C0002994968B0EB810F0ED0FFE7FFF7D0
:1013E00087FE0099401A41F28931884204D3FFE711
:1013F00003208DF80F0062E0E4E7FFE7019843F671
:101400000041C4F20201096801F00701884212D2CA
:10141000FFE7019943F60040C4F202000170006842
:1014200000F007000199884204D0FFE701208DF801
:101430000F0044E0FFE702980078400700280CD531
:10144000FFE743F60801C4F20201086820F4E05007
:10145000029AD26810430860FFE7029800780007FC
:1014600000280DD5FFE743F60801C4F20201086821
:1014700020F46040029A126940EAC2000860FFE767
:1014800000F04CF843F60801C4F202010968C9B241
:101490000A0944F2AC11C0F60001895CC84040F270
:1014A0000001C2F20001086040F20800C2F2000030
:1014B0000068FFF74DFE00208DF80F00FFE79DF854
:1014C0000F0004B080BD000040F20000C2F2000036
:1014D0000068704780B5FFF7F7FF43F60801C4F2D4
:1014E00002010968C1F3822244F2BC11C0F6000176
:1014F000895CC84080BD000080B5FFF7E5FF43F67A
:101500000801C4F20201096889B24A0B44F2BC1115
:10151000C0F60001895CC84080BD000080B586B07F
:101520000020059004900390029043F60800C4F256
:101530000200006800F00C000146019140B1FFE795
:10154000019804280AD0FFE7019808280CD04FE042
:1015500042F20040C0F2F40002904FE047F6400033
:10156000C0F27D10029049E043F60400C4F202008C
:10157000016801F03F01059100684002002813D581
:10158000FFE743F60400C4F202000068C0F38810CD
:1015900047F64001C0F27D11A0FB0101059A00232E
:1015A000FEF768FE049012E043F60400C4F2020065
:1015B0000068C0F3881042F20041C0F2F401A0FBC1
:1015C0000101059A0023FEF755FE0490FFE743F65C
:1015D0000400C4F20200006800F44031022000EB75
:1015E000D130039004980399B0FBF1F0029005E02C
:1015F00042F20040C0F2F4000290FFE7029806B009
:1016000080BD000080B586B00490049820B9FFE743
:1016100001208DF8170050E304980078C0070028D7
:1016200000F0A580FFE743F60800C4F2020000685E
:1016300000F00C00042813D0FFE743F60800C4F2C2
:101640000200006800F00C0008281ED1FFE743F6F6
:101650000400C4F2020000684002002815D5FFE72C
:1016600043F60000C4F20200006800F400310020DC
:10167000B0EB514F08D0FFE70498406820B9FFE76E
:1016800001208DF8170018E370E0FFE70498406828
:10169000B0F5803F09D1FFE743F60001C4F2020133
:1016A000086840F48030086020E004984068B0F595
:1016B000A02F0DD1FFE743F60001C4F20201086834
:1016C00040F480200860086840F4803008600CE036
:1016D00043F60001C4F20201086820F4803008607B
:1016E000086820F480200860FFE7FFE7FFE7049820
:1016F0004068E8B1FFE7FFF7FBFC0390FFE743F624
:101700000000C4F20200006800F400310020B0EBD9
:10171000514F0CD1FFE7FFF7EBFC0399401A652806
:1017200004D3FFE703208DF81700C6E2E7E71CE0CB
:10173000FFF7DEFC0390FFE743F60000C4F202006F
:10174000006800F400310020B0EB514F0CD0FFE7EF
:10175000FFF7CEFC0399401A652804D3FFE7032066
:101760008DF81700A9E2E7E7FFE7FFE7FFE7049836
:1017700000788007002840F19680FFE743F60800D4
:10178000C4F20200006810F00C0F13D0FFE743F61C
:101790000800C4F20200006800F00C0008282CD1F8
:1017A000FFE743F60400C4F202000068400200288C
:1017B00023D4FFE743F60000C4F20200006800F003
:1017C00002010020B0EB510F09D0FFE70498C06878
:1017D000012804D0FFE701208DF817006DE243F6E1
:1017E0000001C4F20201086820F0F800049A1269AE
:1017F00040EAC2000860FFE754E00498C06870B394
:10180000FFE70021C4F2472101200860FFF770FCC8
:101810000390FFE743F60000C4F20200006800F006
:1018200002010020B0EB510F0CD1FFE7FFF760FC85
:101830000399401A032804D3FFE703208DF817000B
:101840003BE2E7E743F60001C4F20201086820F03A
:10185000F800049A126940EAC200086021E0002101
:10186000C4F2472100200860FFF742FC0390FFE725
:1018700043F60000C4F20200006800F002010020FC
:10188000B0EB510F0CD0FFE7FFF732FC0399401A81
:10189000032804D3FFE703208DF817000DE2E7E7E4
:1018A000FFE7FFE7FFE704980078000700284BD523
:1018B000FFE70498406918B3FFE740F68061C4F27F
:1018C000472101200860FFF713FC0390FFE743F670
:1018D0007400C4F20200006800F002010020B0EBC6
:1018E000510F0CD1FFE7FFF703FC0399401A0328BF
:1018F00004D3FFE703208DF81700DEE1E7E722E0DD
:1019000040F68061C4F2472100200860FFF7F0FB39
:101910000390FFE743F67400C4F20200006800F091
:1019200002010020B0EB510F0CD0FFE7FFF7E0FB06
:101930000399401A032804D3FFE703208DF817000A
:10194000BBE1E7E7FFE7FFE70498007840070028DE
:1019500040F1CE80FFE700208DF8070043F64000FD
:10196000C4F202000068C000002815D4FFE7FFE7BA
:101970000020009043F64000C4F20200016841F0EC
:1019800080510160006800F0805000900098FFE7EF
:1019900001208DF80700FFE747F20000C4F20000C5
:1019A0000068C005002822D4FFE747F20001C4F216
:1019B0000001086840F480700860FFF799FB03900D
:1019C000FFE747F20000C4F200000068C0050028ED
:1019D0000CD4FFE7FFF78CFB0399401A032804D3CC
:1019E000FFE703208DF8170067E1EAE7FFE7FFE76D
:1019F00004988068012809D1FFE743F67001C4F21A
:101A00000201086840F0010008601FE00498806847
:101A100005280DD1FFE743F67001C4F20201086802
:101A200040F004000860086840F0010008600CE025
:101A300043F67001C4F20201086820F0010008605A
:101A4000086820F004000860FFE7FFE7FFE704985C
:101A50008068F8B1FFE7FFF74BFB0390FFE743F621
:101A60007000C4F20200006800F002010020B0EB38
:101A7000510F0ED1FFE7FFF73BFB0399401A41F2EC
:101A80008931884204D3FFE703208DF8170014E161
:101A9000E5E71EE0FFF72CFB0390FFE743F670003D
:101AA000C4F20200006800F002010020B0EB510F08
:101AB0000ED0FFE7FFF71CFB0399401A41F2893172
:101AC000884204D3FFE703208DF81700F5E0E5E72F
:101AD000FFE79DF80700012809D1FFE743F6400121
:101AE000C4F20201086820F080500860FFE7FFE7B9
:101AF00004988069002800F0DC80FFE743F60800C6
:101B0000C4F20200006800F00C00082800F0858094
:101B1000FFE70498806902285CD1FFE76021C4F2E6
:101B2000472100200860FFF7E3FA0390FFE743F640
:101B30000000C4F20200006800F000710020B0EB69
:101B4000516F0CD0FFE7FFF7D3FA0399401A03282F
:101B500004D3FFE703208DF81700AEE0E7E7049910
:101B6000C869D1F820C04B6A8A6A40EA0C0040EA92
:101B70008310D2034FF6FF739A43A2F580321043CD
:101B8000C96A40EA016043F60401C4F20201086038
:101B90006021C4F2472101200860FFF7A9FA0390F1
:101BA000FFE743F60000C4F20200006800F0007195
:101BB0000020B0EB516F0CD1FFE7FFF799FA0399C2
:101BC000401A032804D3FFE703208DF8170074E0C0
:101BD000E7E721E06021C4F2472100200860FFF719
:101BE00087FA0390FFE743F60000C4F202000068A2
:101BF00000F000710020B0EB516F0CD0FFE7FFF751
:101C000077FA0399401A032804D3FFE703208DF8DD
:101C1000170052E0E7E7FFE74AE0049880690128EF
:101C200004D1FFE701208DF8170046E043F60400D9
:101C3000C4F202000068029004988069012831D043
:101C4000FFE7029800F480000499C969884229D10D
:101C5000FFE7029800F03F000499096A884221D109
:101C6000FFE7029847F6C07108400499496AB0EB53
:101C7000811F17D1FFE7029800F440300499896A68
:101C8000C9034FF6FF729143A1F58031884209D113
:101C9000FFE7029800F070600499C96AB0EB016F29
:101CA00004D0FFE701208DF8170006E0FFE7FFE70B
:101CB000FFE700208DF81700FFE79DF8170006B03A
:101CC00080BD000080B582B00190019801F0FAF962
:101CD00002B080BD81B0009001B0704781B000902B
:101CE00001B0704785B003900291FFE7039890F828
:101CF0003C00012804D1FFE702208DF813006CE0BE
:101D00000399012081F83C00FFE7FFE703990220D7
:101D100081F83D00039800684068019003980068CE
:101D200080680090019820F070000190029801688E
:101D30000198084301900198039909684860039845
:101D400000680021C4F2010188422AD0FFE703980D
:101D50000068B0F1804F24D0FFE70398006840F29C
:101D60000041C4F2000188421BD0FFE703980068DD
:101D700040F60001C4F20001884212D0FFE7039848
:101D8000006840F60041C4F20001884209D0FFE734
:101D90000398006844F20001C4F2010188420ED1A8
:101DA000FFE7009820F080000090029841680098BA
:101DB000084300900098039909688860FFE7039939
:101DC000012081F83D00FFE70399002081F83C00E5
:101DD000FFE700208DF81300FFE79DF8130005B022
:101DE0007047000080B582B00090009820B9FFE7EE
:101DF00001208DF807003FE0009890F83D0040B9C1
:101E0000FFE70099002081F83C00009800F038F8C6
:101E1000FFE70099022081F83D00009951F8040B7A
:101E200001F0E0F90099012081F84600FFE70099F0
:101E3000012081F83E00009981F83F00009981F867
:101E40004000009981F84100FFE7FFE70099012079
:101E500081F84200009981F84300009981F844001C
:101E6000009981F84500FFE70099012081F83D00C5
:101E700000208DF80700FFE79DF8070002B080BD45
:101E800080B584B00390039800680021C4F201017A
:101E900088421BD1FFE7FFE70020029043F6440091
:101EA000C4F20200016841F001010160006800F025
:101EB000010002900298FFE71920019000221146CC
:101EC000FFF7AEF90198FFF7A1F9FFE704B080BD75
:101ED00083B00190019890F83D00012804D0FFE7FD
:101EE00001208DF80B0058E00199022081F83D0097
:101EF00001980168C86840F00100C8600198006856
:101F00000021C4F2010188422AD0FFE7019800684D
:101F1000B0F1804F24D0FFE70198006840F2004103
:101F2000C4F2000188421BD0FFE70198006840F628
:101F30000001C4F20001884212D0FFE70198006856
:101F400040F60041C4F20001884209D0FFE7019841
:101F5000006844F20001C4F20101884212D1FFE797
:101F600001980068806800F007000090009806283B
:101F700007D0FFE701980168086840F00100086099
:101F8000FFE706E001980168086840F0010008607A
:101F9000FFE700208DF80B00FFE79DF80B0003B072
:101FA0007047000080B586B00490039100208DF842
:101FB0000B00FFE7049890F83C00012804D1FFE7EC
:101FC00002208DF81700ABE00499012081F83C0055
:101FD000FFE7FFE70499022081F83D0004980068BC
:101FE00080680190019820F077000190019820F41A
:101FF0007F400190019804990968886003980068FF
:102000000090002872D0FFE7009810286ED0FFE7FC
:10201000009820286AD0FFE70098302866D0FFE7B4
:102020000098402855D0FFE70098502837D0FFE7A8
:102030000098602840D0FFE7009870280BD0FFE799
:102040000098B0F5805F05D0FFE70098B0F5005F1D
:1020500016D052E055E004980068039B5A689968CE
:10206000DB6801F05DF904980068806801900198D0
:1020700040F077000190019804990968886040E079
:1020800004980068039B5A689968DB6801F048F976
:1020900004980168886840F48040886031E00498C2
:1020A0000068039A5168D26801F06AF904980068E0
:1020B000502101F04FF924E004980068039A516818
:1020C000D26801F085F904980068602101F042F9B6
:1020D00017E004980068039A5168D26801F050F93B
:1020E00004980068402101F035F90AE0049800687E
:1020F0000399096801F02EF903E001208DF80B0027
:10210000FFE70499012081F83D00FFE704990020D2
:1021100081F83C00FFE79DF80B008DF81700FFE702
:102120009DF8170006B080BD81B0009001B07047E7
:1021300080B582B0019001980068006900F002014A
:102140000020B0EB510F28D0FFE701980068C0686D
:1021500000F002010020B0EB510F1DD0FFE7019805
:1021600001686FF002000861019901200877019869
:1021700000688069800720B1FFE70198FFF7D4FF6E
:1021800006E0019800F012F9019800F013F9FFE75A
:10219000019900200877FFE7FFE7019800680069D0
:1021A00000F004010020B0EB910F29D0FFE7019867
:1021B0000068C06800F004010020B0EB910F1ED051
:1021C000FFE7019801686FF004000861019902209F
:1021D000087701980068806910F4407F04D0FFE719
:1021E0000198FFF7A1FF06E0019800F0DFF80198E1
:1021F00000F0E0F8FFE7019900200877FFE7FFE72C
:1022000001980068006900F008010020B0EBD10FD0
:1022100028D0FFE701980068C06800F0080100209E
:10222000B0EBD10F1DD0FFE7019801686FF00800F7
:10223000086101990420087701980068C069800747
:1022400020B1FFE70198FFF76FFF06E0019800F06B
:10225000ADF8019800F0AEF8FFE70199002008778B
:10226000FFE7FFE701980068006900F01001002017
:10227000B0EB111F29D0FFE701980068C06800F09B
:1022800010010020B0EB111F1ED0FFE7019801687C
:102290006FF0100008610199082008770198006824
:1022A000C06910F4407F04D0FFE70198FFF73CFFBE
:1022B00006E0019800F07AF8019800F07BF8FFE75B
:1022C000019900200877FFE7FFE70198006800699F
:1022D000C00780B1FFE701980068C068C00748B137
:1022E000FFE7019801686FF001000861019800F0B4
:1022F00065F8FFE7FFE7019800680069C1B20020B8
:10230000B0EBD11F13D0FFE701980068C068C1B2DD
:102310000020B0EBD11F09D0FFE7019801686FF0F2
:10232000800008610198FFF7D5FCFFE7FFE70198FF
:102330000068006900F040010020B0EB911F14D04C
:10234000FFE701980068C06800F040010020B0EB92
:10235000911F09D0FFE7019801686FF04000086104
:10236000019800F047F8FFE7FFE70198006800696F
:1023700000F020010020B0EB511F14D0FFE70198BE
:102380000068C06800F020010020B0EB511F09D0A8
:10239000FFE7019801686FF0200008610198FFF7DE
:1023A0009DFCFFE7FFE702B080BD000081B0009018
:1023B00001B0704781B0009001B0704781B00090CB
:1023C000009800680021C4F20101884210D1FFE7A3
:1023D00040F27A01C2F20001012008702420C4F208
:1023E0000100006840F6D421C2F200010860FFE756
:1023F00001B0704781B0009001B0704782B0019089
:10240000ADF8021002B0704781B0009001B0704783
:1024100080B592B0119011980068006810901198E2
:102420000068C0680F901198006840690E90002005
:102430000D900C90109800F00F000D900D9888B939
:10244000FFE79DF84000800600280AD5FFE79DF8C9
:102450003C008006002804D5FFE7119801F084F9BC
:10246000E3E1FFE70D98002800F0C280FFE79DF848
:102470003800C00738B9FFE7BDF83C0010F4907F82
:1024800000F0B680FFE79DF84000C00758B1FFE7B5
:102490009DF83D00C00730B1FFE71199086C40F08E
:1024A00001000864FFE79DF84000400700280BD5B5
:1024B000FFE79DF83800C00730B1FFE71199086CBD
:1024C00040F002000864FFE79DF840008007002804
:1024D0000BD5FFE79DF83800C00730B1FFE7119931
:1024E000086C40F004000864FFE79DF84000000716
:1024F000002811D5FFE79DF83C008006002805D490
:10250000FFE79DF83800C00730B1FFE71199086C6C
:1025100040F008000864FFE71198006C002866D0BE
:10252000FFE79DF84000800600280AD5FFE79DF8E8
:102530003C008006002804D5FFE7119801F014F94B
:10254000FFE7119800684069C0F380100C90119863
:10255000006C0007002804D4FFE70C9800283ED048
:10256000FFE7119801F086F811980068406940066D
:1025700000282FD5FFE7FFE7FFE71198006850E834
:10258000050F20F040000B90FFE70B9911980268AF
:1025900042E805100028F0D1FFE7FFE71198806BB3
:1025A00098B1FFE71198816B43F22540C0F6000017
:1025B00008651198806BFEF7CFF828B1FFE71198F6
:1025C000806B016D8847FFE703E01198FFF71CFF60
:1025D000FFE703E01198FFF717FFFFE706E0119808
:1025E000FFF712FF119900200864FFE7FFE71CE1E5
:1025F0001198006B012840F0F880FFE79DF840003B
:10260000C006002840F1F180FFE79DF83C00C006BD
:10261000002840F1EA80FFE7FFE700200A901198C8
:10262000006800680A901198006840680A900A984B
:10263000FFE7119800684069400600287ED5FFE753
:102640001198806B00684068ADF82600BDF8260040
:10265000002872D0FFE7BDF826001199898D8842C5
:102660006BDAFFE7BDF826001199C8851198806BD9
:10267000C069B0F5807F58D0FFE7FFE7FFE711980A
:10268000006850E8030F20F480700890FFE7089975
:102690001198026842E803100028F0D1FFE7FFE735
:1026A000FFE7FFE71198006850E8050F20F00100F0
:1026B0000790FFE707991198026842E80510002883
:1026C000F0D1FFE7FFE7FFE7FFE71198006850E868
:1026D000050F20F040000690FFE706991198026868
:1026E00042E805100028F0D1FFE7FFE7119920200C
:1026F00081F83E00119900200863FFE7FFE7119879
:10270000006850E8030F20F010000590FFE70599DE
:102710001198026842E803100028F0D1FFE7FFE7B4
:102720001198806BFDF7A2FFFFE71198818DC28D94
:10273000891A89B2FFF762FEFFE776E01199888D6A
:10274000C98D401AADF812001198C08D00284BD0E9
:10275000FFE7BDF81200002846D0FFE7FFE7FFE7DC
:102760001198006850E8030F20F490700390FFE781
:1027700003991198026842E803100028F0D1FFE79E
:10278000FFE7FFE7FFE71198006850E8050F20F02A
:1027900001000290FFE702991198026842E80510D3
:1027A0000028F0D1FFE7FFE71199202081F83E00D3
:1027B000119900200863FFE7FFE71198006850E8CF
:1027C000030F20F010000190FFE7019911980268B3
:1027D00042E803100028F0D1FFE7FFE71198BDF8A9
:1027E0001210FFF70BFEFFE71FE09DF84000000608
:1027F00000280AD5FFE79DF83C000006002804D514
:10280000FFE7119801F08CF90FE09DF840004006B9
:1028100000280AD5FFE79DF83C004006002804D5B3
:10282000FFE7119800F070FFFFE712B080BD0000D5
:1028300080B582B00090009820B9FFE701208DF8A4
:1028400007003EE00098806908B1FFE700E0FFE77D
:10285000009890F83D0040B9FFE70099002081F80A
:102860003C00009800F032F8FFE70099242081F83E
:102870003D0000980168C86820F40050C8600098C6
:1028800001F024F800980168086920F4904008617C
:1028900000980168486920F02A00486100980168A2
:1028A000C86840F40050C860009900200864009A8D
:1028B000202182F83D10009A82F83E108DF8070022
:1028C000FFE79DF8070002B080BD000080B592B020
:1028D0001190002010900F900E900D900C90119878
:1028E000006841F20001C4F20101884240F0948086
:1028F000FFE7FFE700200B9043F64400C4F202001C
:10290000016841F010010160006800F010000B90B8
:102910000B98FFE7FFE700200A9043F63000C4F26F
:102920000200016841F001010160006800F001004F
:102930000A900A98FFE74FF4C0600C9002200D90B7
:10294000002006900E9003200F900720109000208A
:10295000C4F202000CA9FEF7EDF9069940F27C00E2
:10296000C2F20000079046F24042C4F20202026046
:102970004FF0006242608160C1604FF4806202618A
:10298000416181614FF48072C26101624162FEF770
:1029900095F818B1FFE7FDF761FEFFE7FFE7119833
:1029A00040F27C01C2F20001816311988863FFE765
:1029B00040F2DC00C2F20000059046F2B841C4F2D9
:1029C000020101604FF000614160402181600021FF
:1029D000C1604FF48062026141618161C161016245
:1029E0004162FEF76BF818B1FFE7FDF737FEFFE72E
:1029F000FFE7119840F2DC01C2F200014163119837
:102A00008863FFE72520049000221146FEF708FCAA
:102A10000498FEF7FBFB9CE01198006844F200412B
:102A2000C4F20001884240F09380FFE7FFE70020F6
:102A3000099043F64000C4F20200016841F40031FD
:102A40000160006800F4003009900998FFE7FFE793
:102A50000020089043F63000C4F20200016841F003
:102A600001010160006800F0010008900898FFE78C
:102A70000C200C9002200D90002002900E9003205C
:102A80000F90072010900020C4F202000CA9FEF75E
:102A900051F9029940F23C10C2F20000039046F254
:102AA0008802C4F2020202604FF00062426081605C
:102AB000C1604FF480620261416181614FF48072B4
:102AC000C26101624162FDF7F9FF18B1FFE7FDF74E
:102AD000C5FDFFE7FFE7119840F23C11C2F200018B
:102AE000816311988863FFE740F29C10C2F20000F6
:102AF000019046F2A001C4F2020101604FF00061B2
:102B00004160402181600021C1604FF48062026118
:102B100041618161C16101624162FDF7CFFF18B17E
:102B2000FFE7FDF79BFDFFE7FFE7119840F29C11DF
:102B3000C2F20001416311988863FFE726200090EC
:102B400000221146FEF76CFB0098FEF75FFBFFE7E3
:102B5000FFE712B080BD000080B584B00290019103
:102B6000ADF80220029890F83E00202828D1FFE717
:102B7000019820B1FFE7BDF8020020B9FFE701206E
:102B80008DF80F0020E0FFE7029890F83C00012844
:102B900004D1FFE702208DF80F0015E00299012013
:102BA00081F83C00FFE7FFE70299002008630298E4
:102BB0000199BDF8022000F027FF8DF80F0003E017
:102BC00002208DF80F00FFE79DF80F0004B080BDD4
:102BD00081B0009001B0704781B0009001B07047A3
:102BE00080B586B004900391ADF80A20049890F85F
:102BF0003D00202874D1FFE7039820B1FFE7BDF81E
:102C00000A0020B9FFE701208DF817006CE0FFE70C
:102C1000049890F83C00012804D1FFE702208DF8C9
:102C2000170061E00499012081F83C00FFE7FFE70D
:102C3000039804990862BDF80A0004998884BDF8D5
:102C40000A000499C884049900200864049A212188
:102C500082F83D1004994A6B43F2E151C0F600013D
:102C6000D16304994A6B43F25D61C0F600011164BF
:102C700004994A6B43F24541C0F60001D1640499BE
:102C8000496B086503A8019004980268406B01999C
:102C900009680432BDF80A30FDF7C8FF04980168DE
:102CA0006FF040000860FFE70499002081F83C00C5
:102CB000FFE7FFE7FFE70498006850E8050F40F0E2
:102CC00080000090FFE700990498026842E8051030
:102CD0000028F0D1FFE7FFE700208DF8170003E0A0
:102CE00002208DF81700FFE79DF8170006B080BDA1
:102CF00081B0009001B0704781B0009001B0704782
:102D0000FFE7FEE780B588B0FFE70020079043F6B5
:102D10003000C4F20200016841F4800101600068E3
:102D200000F4800007900798FFE7FFE70020069077
:102D300043F63000C4F20200016841F40011016062
:102D4000006800F4001006900698FFE7102001903C
:102D5000002204921146FEF763FA0198FEF756FA34
:102D6000049A112002901146FEF75AFA0298FEF7D3
:102D70004DFA049A3A2003901146FEF751FA03984F
:102D8000FEF744FA049A462005901146FEF748FAE9
:102D90000598FEF73BFA08B080BD000080B58CB006
:102DA00000200B900A90099008900790FFE7002000
:102DB000069043F63000C4F20200016841F00401BD
:102DC0000160006800F0040006900698FFE7FFE746
:102DD0000020059043F63000C4F20200016841F083
:102DE00080010160006800F0800005900598FFE711
:102DF000FFE70020049043F63000C4F202000168AF
:102E000041F001010160006800F0010004900498A5
:102E1000FFE740F60000C4F2020003904FF40051B7
:102E2000019101220292FEF74BF9019A029903984F
:102E300007920891002109910A9107A9FDF77AFFED
:102E40000CB080BD80B588B000210091079106913B
:102E5000059104910391029140F2FC10C2F200002E
:102E600001900022C4F201020260F92242608160F6
:102E70004CF24F32C260016141618161FEF7B2FFE5
:102E800018B1FFE7FDF7EAFBFFE74FF4805004902D
:102E900040F2FC10C2F2000004A9FFF783F818B159
:102EA000FFE7FDF7DBFBFFE700200290039040F215
:102EB000FC10C2F2000002A9FEF714FF18B1FFE7F0
:102EC000FDF7CCFBFFE708B080BD000080B582B005
:102ED00040F24420C2F20000019041F20001C4F22D
:102EE000010101604FF4E131416000218160C16066
:102EF00001610C2242618161C161FFF799FC18B147
:102F0000FFE7FDF7ABFBFFE702B080BD80B582B005
:102F100040F28820C2F20000019044F20041C4F265
:102F2000000101604FF4E131416000218160C16026
:102F300001610C2242618161C161FFF779FC18B126
:102F4000FFE7FDF78BFBFFE702B080BDFFE7FEE781
:102F5000FFE7FEE788B0079006910592079800F01A
:102F6000070004900498C0F10700052803D3FFE789
:102F70000420019004E00498C0F107000190FFE7ED
:102F80000198039004980430062803D8FFE7002036
:102F9000009003E0049803380090FFE70098029047
:102FA00006980399012202FA01F101390840029BB7
:102FB000984005999A40013A1140084308B070477B
:102FC000704700007047000080B584B00390002077
:102FD0000290FFE70298039909780131884214DAD8
:102FE000FFE703980299405C40F6D821C2F2000145
:102FF0004A880A441071488801306FF39F20488046
:10300000FFE7029801300290E4E740F28820C2F224
:103010000000006800680006002811D5FFE740F6B0
:10302000D820C2F200000190011D40F28820C2F2B7
:1030300000001722FFF7D4FD019900204880FFE728
:1030400001F08CF804B080BD80B584B003900020FE
:103050000290FFE70298032814D8FFE7039802992B
:10306000405C40F6DC61C2F200014A880A441071FB
:10307000488801306FF39F204880FFE702980130B5
:103080000290E7E740F24420C2F2000000680068C6
:103090000006002811D5FFE740F6DC60C2F2000010
:1030A00001904288011D40F24420C2F20000FFF767
:1030B00097FD019900204880FFE701F04FF804B028
:1030C00080BD000080B582B0009000980138B0F15A
:1030D000807F03D3FFE70120019019E000980138B9
:1030E0004EF21401CEF2000108604FF0FF300F21C4
:1030F00000F092FD4EF21801CEF2000100200860AF
:103100004EF21002CEF20002072111600190FFE79B
:10311000019802B080BD000080B5FDF7EFFF80BDD3
:1031200080B594B008A83021FDF71CF90020079065
:103130000690059004900390FFE70020029043F66C
:103140004000C4F20200016841F080510160006853
:1031500000F0805002900298FFE7FFE70020019006
:1031600047F20000C4F200000168022262F38F31CE
:103170000160006800F4404001900198FFE70120E1
:1031800008904FF48030099000200E9008A8FEF7B8
:1031900039FA18B1FFE7FDF761FAFFE70F20039056
:1031A00001200490002105910691079103A8FEF7E4
:1031B00059F818B1FFE7FDF751FAFFE714B080BDE9
:1031C0004EF68851CEF20001086840F470000860A5
:1031D0007047000080B540F2FC10C2F20000FEF71C
:1031E000A7FF80BD83B00290019102980068009013
:1031F00002980021C4F2010188421DD0FFE7029825
:10320000B0F1804F18D0FFE7029840F20041C4F2BD
:103210000001884210D0FFE7029840F60001C4F296
:103220000001884208D0FFE7029840F60041C4F24E
:10323000000188420AD1FFE7009820F0700000905A
:1032400001984168009808430090FFE70298002128
:10325000C4F20101884235D0FFE70298B0F1804FF7
:1032600030D0FFE7029840F20041C4F200018842EA
:1032700028D0FFE7029840F60001C4F2000188421E
:1032800020D0FFE7029840F60041C4F200018842D6
:1032900018D0FFE7029844F20001C4F2010188420D
:1032A00010D0FFE7029844F20041C4F201018842C5
:1032B00008D0FFE7029844F60001C4F201018842F9
:1032C0000AD1FFE7009820F4407000900198C1688F
:1032D000009808430090FFE7009820F080000199D3
:1032E0004969084300900098029908600198806835
:1032F0000299C862019800680299886202980021C8
:10330000C4F20101884205D1FFE7019800690299E2
:103310000863FFE702990120486103B0704700008D
:1033200085B0049003910292019304988068009004
:10333000009820F47F40009003980299019A41EA96
:103340000221014300980843009000980499886086
:1033500005B0704783B00290019102988068009098
:10336000009820F07000009001980099084340F008
:103370000700009000980299886003B07047000031
:1033800085B00490039102920498006A0090049919
:10339000086A20F001000862049880690190019891
:1033A00020F0F00001900299019840EA011001908C
:1033B000009820F00A0000900399009808430090BC
:1033C00001980499886100980499086205B07047D3
:1033D00085B00490039102920499086A20F01000CD
:1033E00008620498806901900498006A009001982E
:1033F00020F4704001900299019840EA0130019058
:10340000009820F0A00000900399009840EA011075
:10341000009001980499886100980499086205B0A9
:103420007047000080B582B001900198806B0090D9
:1034300000990020C8850099C8840098FEF7E4FF31
:1034400002B080BD80B584B0039000200290039844
:10345000806B0190019800684069C0B2C009029079
:10346000019890F83D0021280AD1FFE7029838B171
:10347000FFE701990020C884019800F059F9FFE79F
:10348000019800684069C0F380100290019890F89C
:103490003E0022280AD1FFE7029838B1FFE70199E0
:1034A0000020C885019800F0E5F8FFE70199086C55
:1034B00040F0100008640198FEF7A6FF04B080BD3C
:1034C00080B586B005900598806B049005980068DB
:1034D0000068C00500285AD4FFE704990020C88579
:1034E000FFE7FFE70498006850E8030F20F48070BE
:1034F0000390FFE703990498026842E8031000284C
:10350000F0D1FFE7FFE7FFE7FFE70498006850E826
:10351000050F20F001000290FFE70299049802686D
:1035200042E805100028F0D1FFE7FFE7FFE7FFE7DB
:103530000498006850E8050F20F040000190FFE774
:1035400001990498026842E805100028F0D1FFE7CD
:10355000FFE70499202081F83E000498006B0128C1
:1035600014D1FFE7FFE7FFE70498006850E8030F76
:1035700020F010000090FFE700990498026842E8EC
:1035800003100028F0D1FFE7FFE7FFE7FFE704980B
:10359000006B012805D1FFE70498818DFEF72EFF0F
:1035A00003E00498FFF714FBFFE706B080BD0000BE
:1035B00080B582B001900198806B00900098006BFC
:1035C000012806D1FFE70098818D4908FEF716FF14
:1035D00003E00098FFF700FBFFE702B080BD0000AA
:1035E00080B584B003900398806B029003980068C4
:1035F0000068C00500282AD4FFE702990020C8848B
:10360000FFE7FFE70298006850E8050F20F0800010
:103610000190FFE701990298026842E8051000282E
:10362000F0D1FFE7FFE7FFE7FFE70298006850E807
:10363000030F40F040000090FFE7009902980268F5
:1036400042E803100028F0D1FFE7FFE703E002980B
:10365000FFF74EFBFFE704B080BD000080B582B0ED
:1036600001900198806B00900098FFF745FB02B035
:1036700080BD000084B00390FFE7FFE70398006877
:1036800050E8030F20F490700290FFE7029903982E
:10369000026842E803100028F0D1FFE7FFE7FFE7E8
:1036A000FFE70398006850E8050F20F00100019043
:1036B000FFE701990398026842E805100028F0D15D
:1036C000FFE7FFE70398006B012814D1FFE7FFE74E
:1036D000FFE70398006850E8030F20F01000009007
:1036E000FFE700990398026842E803100028F0D130
:1036F000FFE7FFE7FFE70399202081F83E000399E9
:103700000020086304B0704780B582B00190019832
:103710000168C86820F04000C8600199202081F845
:103720003D000198FFF7E4FA002002B080BD0000E0
:1037300082B00190FFE7FFE70198006850E8030FAF
:1037400020F0C0000090FFE700990198026842E86D
:1037500003100028F0D1FFE7FFE70199202081F84E
:103760003D0002B07047000080B586B00490049818
:1037700090F83E00222840F0A180FFE7049880687E
:10378000B0F5805F15D1FFE70498006988B9FFE7BD
:10379000002003900498806A0290049800684068B2
:1037A0006FF35F20029908800499886A023088626A
:1037B00025E00498806A03900020029004988068B5
:1037C000B0F5805F08D0FFE70498806850B9FFE744
:1037D0000498006930B9FFE70498006840680399CD
:1037E000087007E004980068406800F07F000399C3
:1037F0000870FFE70499886A01308862FFE704993E
:10380000C88D0138C8850004002853D1FFE704980B
:103810000168C86820F02000C86004980168C86882
:1038200020F48070C86004980168486920F00100A5
:1038300048610499202081F83E000498006B01281B
:1038400030D1FFE7049900200863FFE7FFE7049801
:10385000006850E8030F20F010000190FFE7019985
:103860000498026842E803100028F0D1FFE7FFE760
:10387000049800680068C00600280ED5FFE7FFE73F
:103880000020009004980068006800900498006888
:10389000406800900098FFE7FFE70498818DFEF7ED
:1038A000ADFD03E00498FFF793F9FFE700208DF8E2
:1038B000170007E000208DF8170003E002208DF8C4
:1038C0001700FFE79DF8170006B080BD80B586B0F1
:1038D000059005980068006920F44050059A116829
:1038E000D26810430861059988680B694A69C969FB
:1038F000184310430843049005980068C06849F2D3
:103900000C6188430499084305990968C8600598C3
:103910000068406920F44070059A1168926910436C
:1039200048610598006841F20001C4F20101884233
:1039300009D0FFE70598006841F20041C4F2010197
:10394000884204D1FFE7FDF7D7FD039003E0FDF7C0
:10395000C1FD0390FFE70598C069B0F5004F29D17C
:10396000FFE703981921A0FB0101059A1368029350
:1039700053685A00DB0FFCF77DFC0299864648F23B
:103980001F53C5F2EB13AEFB0320420910014FF0A9
:10399000640C02FB1CEC322202EBCC02A2FB0332D1
:1039A000F82303EA521300EB4300C2F3421210441F
:1039B000886026E003981921A0FB0101059A13688D
:1039C000019353689A009B0FFCF754FC01998446BD
:1039D00048F21F52C5F2EB12ACFB023043096420DF
:1039E00003FB10CC322000EB0C10A0FB0202F020F5
:1039F00000EA521000EB0310C2F343121044886037
:103A0000FFE706B080BD000080B588B00790069142
:103A1000ADF81620069807998862BDF81600079938
:103A20008885079900200864079A222182F83E10B1
:103A300007998A6B43F2C141C0F60001D16307992F
:103A40008A6B43F2B151C0F60001116407998A6B89
:103A500043F24541C0F60001D1640799896B0865BE
:103A600006A8049007980168806B0431049A1268D4
:103A7000BDF81630FDF7DAF8FFE70020039007984D
:103A800000680068039007980068406803900398F6
:103A9000FFE7FFE70799002081F83C00FFE7079860
:103AA0000069A0B1FFE7FFE7FFE70798006850E86B
:103AB000030F40F480700290FFE7029907980268B4
:103AC00042E803100028F0D1FFE7FFE7FFE7FFE738
:103AD000FFE70798006850E8050F40F001000190EB
:103AE000FFE701990798026842E805100028F0D125
:103AF000FFE7FFE7FFE7FFE70798006850E8050FDB
:103B000040F040000090FFE700990798026842E803
:103B100005100028F0D1FFE7FFE7002008B080BDC6
:103B200083B00190019890F83D0021283AD1FFE739
:103B300001988068B0F5805F13D1FFE701980069B4
:103B400078B9FFE70198006A0090009800886FF349
:103B50005F200199096848600199086A023008628B
:103B600008E0019A106A411C116200780199096805
:103B70004860FFE70199C88C0138C884000468B91F
:103B8000FFE701980168C86820F08000C8600198CC
:103B90000168C86840F04000C860FFE700208DF869
:103BA0000B0003E002208DF80B00FFE79DF80B00EF
:103BB00003B0704780B540F24420C2F20000FEF727
:103BC00027FC80BD80B540F28820C2F20000FEF7DD
:103BD0001FFC80BDFFE7FEE781B08DF803009DF973
:103BE000030000280ED4FFE79DF9031001F01F0227
:103BF000012090404A094EF20011CEF2000141F836
:103C00002200FFE701B070474EF60C50CEF20000E4
:103C10000068C0F30220704782B08DF80700009161
:103C20009DF9070000280AD4FFE7009800019DF9DC
:103C300007104EF20042CEF2000288540BE00098CA
:103C400000019DF8071001F00F014EF61452CEF25C
:103C500000028854FFE702B07047000083B0029072
:103C6000029800F0070000904EF60C51CEF20001D1
:103C70000868019001984FF6FF02104001900198EA
:103C8000009A40EA02200022C0F2FA52104301904A
:103C90000198086003B0704780B584B003908DF838
:103CA0000B109DF80B000230039908700020019062
:103CB000FFE701989DF80B10884210DAFFE740F209
:103CC0007000C2F200000278039801990144C8789C
:103CD0001044C870FFE7019801300190E9E740F215
:103CE0007001C2F2000108780130087003980330B7
:103CF0009DF80B10FCF79CFB0399A1F8010004B0A0
:103D000080BD000080B58AB00020ADF82400ADF879
:103D1000220000F023FA40F2CC21C2F200014888D0
:103D20000988884215D1FFE740F60000C4F202007E
:103D300006904FF400510791FDF7AEF9FA20FCF719
:103D4000D7FF06980799FDF7A7F90020ADF82600E0
:103D5000C8E0FFE740F2CC21C2F2000148880988A0
:103D600088424AD0FFE740F27800C2F200000078B3
:103D700098B9FFE741F2E020C2F2000040F2CC2106
:103D8000C2F2000100F0D2F9ADF8240040F278014F
:103D9000C2F20001022008702EE040F27800C2F268
:103DA00000000078022826D1FFE7FFE740F2CC2090
:103DB000C2F200000088BDF82410884214D0FFE74A
:103DC00040F2CC21C2F200010A888818007902F082
:103DD000030341F2E022C2F20002D054088801300D
:103DE0006FF39F200880E1E740F27801C2F2000102
:103DF00003200870FFE7FFE7ACE740F27800C2F26B
:103E000000000078032869D1FFE741F2E020C2F208
:103E10000000059003300121FCF70AFB0599ADF87D
:103E20002200BDF82200B1F80110884208D1FFE756
:103E300041F2E020C2F20000C078022821D1FFE761
:103E400040F60000C4F2020003904FF400510491C8
:103E5000FDF722F9FA200290FCF74AFF0398049933
:103E6000FDF71AF90298FCF743FF03980499FDF750
:103E700013F90298FCF73CFF03980499FDF70CF93D
:103E800025E0BDF8220041F2E021C2F20001B1F8C4
:103E9000011088421AD1FFE741F2E020C2F200008F
:103EA000C078012812D1FFE740F60000C4F20200FA
:103EB00000904FF400510191FDF7EEF8FA20FCF765
:103EC00017FF00980199FDF7E7F8FFE7FFE740F2D9
:103ED0007801C2F2000100200870FFE70120ADF870
:103EE0002600FFE7BDF826000AB080BD80B584B08B
:103EF0000020ADF80E00ADF80C0000F02FF9FFE740
:103F000040F2D061C2F2000108884988884254D04A
:103F1000FFE740F27900C2F20000007898B9FFE7AD
:103F200041F2E420C2F2000040F2D061C2F200018E
:103F300000F0FCF8ADF80E0040F27901C2F2000189
:103F40000220087038E040F27900C2F200000078E8
:103F5000022830D1FFE7FFE740F2D060C2F2000054
:103F60000088BDF80E1088421ED0FFE740F2D061F5
:103F7000C2F20001B1F800C001EB0C00007944F27C
:103F8000C922CBF21622ACFB02321209172302FB24
:103F900013C341F2E422C2F20002D0540888013077
:103FA0006FF39F200880D7E740F27901C2F2000149
:103FB00003200870FFE7FFE7A2E740F27900C2F2B2
:103FC00000000078032839D1FFE741F2E420C2F273
:103FD0000000029003301421FCF72AFA0299ADF890
:103FE0000C00BDF80C00B1F80110884207D0FFE7C3
:103FF00041F2E021C2F200010220C87006E041F265
:10400000E021C2F200010120C870FFE741F2E02088
:10401000C2F2000001900321017003300121FCF77E
:1040200007FA01460198A0F80110FFF70DF840F2D9
:104030007901C2F2000100200870FFE7012004B0FE
:1040400080BD000080B584B0002003908DF80B0087
:10405000FDF762F8FFF764F8FEF7A0FEFEF752FEE8
:10406000FEF734FFFEF752FFFEF7ECFE40F2FC10C5
:10407000C2F20000FDF72CFF40F2D060C2F2000057
:10408000011D40F24420C2F200004FF48062019210
:10409000FEF762FD019A40F2CC20C2F20000011D41
:1040A00040F28820C2F20000FEF756FDFFE740F222
:1040B0007A00C2F200000078A8B1FFE741F2FB20CD
:1040C000C2F2000000901421FFF7E6FD0098FEF711
:1040D0007BFF40F27A01C2F200010020087001204B
:1040E0008DF80B00FFE79DF80B00012806D1FFE7D4
:1040F000FFF7FCFE00208DF80B00FFE79DF80B009A
:1041000090B9FFE72420C4F20100006840F2740176
:10411000C2F200010860FA20FCF7EAFDFFF7F2FDA9
:1041200001208DF80B00FFE7C1E7000082B001908D
:104130000091009801880844043001900099088893
:1041400001306FF39F20088001980078009909885A
:1041500008446FF39F2002B07047000040F27C00DB
:10416000C2F2000000684068C0F5806040F2D06193
:10417000C2F20001488040F23C10C2F20000006828
:104180004068C0F5806040F2CC21C2F20001488056
:104190007047F1EE100A4FF6FF71C0F2C03120EA0D
:1041A000010040F04070E1EE100A7047000000008E
:1041B00000000000010203040607080900000000D7
:1041C0000102030400002110422063308440A55006
:1041D000C660E770088129914AA16BB18CC1ADD14D
:1041E000CEE1EFF13112100273325222B5529442F5
:1041F000F772D662399318837BB35AA3BDD39CC39D
:10420000FFF3DEE36224433420040114E664C77440
:10421000A44485546AA54BB528850995EEE5CFF5EC
:10422000ACC58DD55336722611163006D776F66694
:104230009556B4465BB77AA719973887DFF7FEE73C
:104240009DD7BCC7C448E5588668A7784008611860
:1042500002282338CCC9EDD98EE9AFF9488969998C
:104260000AA92BB9F55AD44AB77A966A711A500A34
:10427000333A122AFDDBDCCBBFFB9EEB799B588BDC
:104280003BBB1AABA66C877CE44CC55C222C033C80
:10429000600C411CAEED8FFDECCDCDDD2AAD0BBD2C
:1042A000688D499D977EB66ED55EF44E133E322ED4
:1042B000511E700E9FFFBEEFDDDFFCCF1BBF3AAF7C
:1042C000599F788F8891A981CAB1EBA10CD12DC1DA
:1042D0004EF16FE18010A100C230E3200450254070
:1042E00046706760B9839893FBA3DAB33DC31CD3D0
:1042F0007FE35EF3B1029012F322D23235421452C0
:1043000077625672EAB5CBA5A89589856EF54FE51B
:104310002CD50DC5E234C324A0148104667447640F
:1043200024540544DBA7FAB79987B8975FE77EF76F
:104330001DC73CD7D326F2369106B016576676765F
:10434000154634564CD96DC90EF92FE9C899E9893B
:104350008AB9ABA94458654806782768C018E108AF
:104360008238A3287DCB5CDB3FEB1EFBF98BD89B0F
:10437000BBAB9ABB754A545A376A167AF10AD01AFF
:10438000B32A923A2EFD0FED6CDD4DCDAABD8BAD5B
:10439000E89DC98D267C076C645C454CA23C832C4F
:1043A000E01CC10C1FEF3EFF5DCF7CDF9BAFBABFAF
:1043B000D98FF89F176E367E554E745E932EB23E9F
:1043C000D10EF01E0006101600061016F04300086D
:1043D0000000002010000000D00100080044000888
:1043E0001000002008190000EC0100080000000087
:1043F0000024F40001000000100000000000000094
:040000050800019559
:00000001FF
